S02B0000433A2F55736572732F6C69756C692F4465736B746F702F67726170686963732F6B65795F63686563D5
S21400000004FFFFDE1500C0DF3A880D003A880F00B7
S2140000103A88050034C83F02044000423700404298
S2140000200C00204926FB3F20CC3F404A44114001AB
S214000030261A40498405400126234049840740018A
S214000040262C404984094001263540494409400190
S214000050263E4049840B400126474049840D400116
S21400006026504049440F400126594049840F40011C
S2140000702662404984114001266B4049841940019C
S2140000802674404984164001267C4049C40340013A
S214000090260040494400800106DE3F00260200306C
S2140000A03A880D0006DB3F004400C03904FFFFDE3F
S2140000B004004002150040DA3A881338040C0001A8
S2140000C04033000006D33F00260200303A880D0079
S2140000D006D03F004400C03904FFFFDE4400400263
S2140000E0150040DA3A881338440C0001403300000B
S2140000F006C83F00260200303A880D0006C53F00BD
S2140001004400C03904FFFFDE84004002150040DAD8
S2140001103A881338840C00014033000006BD3F00C7
S214000120260200303A880D0006BA3F004400C03967
S21400013004FFFFDEC4004002150040DA3A88133898
S214000140C40C00014033000006B23F002602003017
S2140001503A880D0006AF3F004400C03904FFFFDEBA
S21400016004014002150040DA3A881338040D0001F5
S2140001704033000006A73F00260200303A880D00F4
S21400018006A43F004400C03904FFFFDE44014002DD
S214000190150040DA3A881338440D00014033000059
S2140001A0069C3F00260200303A880D0006993F0064
S2140001B04400C03904FFFFDE84014002150040DA27
S2140001C03A881338840D00014033000006913F0042
S2140001D0260200303A880D00068E3F004400C039E3
S2140001E004FFFFDEC4014002150040DA3A881338E7
S2140001F0C40D00014033000006863F002602003092
S2140002003A880D0006833F004400C03904FFFFDE35
S21400021004024002150040DA3A881338040E000142
S21400022040330000067B3F00260200303A880D006F
S21400023006783F004400C03904FFFFDE4402400257
S214000240150040DA3A881338440E000140330000A7
S21400025006703F00260200303A880D00066D3F000B
S214000260C4FFFF39150000D80401C0DE3A881338F1
S2140002703A8809004033000006663F0026653F388E
S214000280440040010E07C001170000D93A38492142
S2140002903A880511A4024029C4FFFF390401C0DED4
S2140002A006F83F001700C0DF0401C0DE3A2800F859
S2140002B03400C1060400C0DE00000000402C000030
S2140002C006FF3F0004FDFFDE150000DC150140DCE4
S2140002D0150380DC3A880900C43B400104508001C5
S2140002E034000202040000423400400204E2404AA5
S2140002F00F00804AA40000242400412C3A88618420
S2140003003A8825822D0080928400404A44000021CD
S21400031016F7BF213A880900C4FF7F290EF43F284C
S214000320170000DC170140DC170380DC0403C0DE86
S2140003303A2800F804FCFFDE1500C0DF150100DCDB
S214000340150240DC150380DC344002020400004243
S2140003504409000444074004C4FF7F4A3A88638A7D
S2140003602420408C3A8865843A8811922500004102
S214000370170380DC170240DC170100DC1700C0DF23
S20C0003800404C0DE3A2800F870
S21400038800F80000E00700001F0000000000000062
S214000398FBDE9AD618C696B554A5518CEF7B8E739D
S2140003A80C63CB5A8A528A528A528A528A528A5284
S2140003B88A528A528A528A528A52AA52AA52AA52F0
S2140003C88A528A528A528A528A528A528A528A5240
S2140003D88A528A528A528A528A528A528A528A5230
S2140003E88A528A528A528A528A528A528A528A5220
S2140003F88A528A528A528A528A528A528A528A5210
S2140006088A52AA52AA52AA52EC622C63CF7B308432
S214000618DBDEDAD679CEF7BD75ADD39C30844D6B6C
S2140006280C63CB5A8A52694A694A694A694A8A52A5
S214000638694A694A694A8A528A528A528A528A5248
S2140006488A528A528A528A528A528A528A528A52BD
S2140006588A528A528A528A528A528A528A528A52AD
S2140006688A528A528A528A528A528A528A528A529D
S2140006788A528A528A528A528A528A528A528A528D
S214000888694A8A528A52AA52EB5A0C638E73EF7BD5
S2140008981CE717BEF39CB29430848E730C63AA527E
S2140008A828420842C739C739C739C739C739C73987
S2140008B8C739C739C739C739C739C739C739C7392B
S2140008C8C739C739C739C739C739C739C739C7391B
S2140008D8C739C739C739C739C739C739C739C7390B
S2140008E8C739C739C739C739C739C739C739C739FB
S214000B08C739C739E7390842494A694A2C63CF7B4F
S214000B185DEF8E73621061088210621061084108EA
S214000B284108210821082108410821082108410810
S214000B382108210821082108210841084108410800
S214000B482108210821082108210821082108210850
S214000B582108210821082108210821082108210840
S214000B682108210821082108210821082108210830
S214000B782108210821082108210821082108210820
S214000D8841082108000000004108E3188A52EF7B5A
S214000D989DEF6D6B000000000000000000000000E2
S214000DA80000000000000000000000000000000036
S214000DB80000000000000000000000000000000026
S214000DC80000000000000000000000000000000016
S214000DD80000000000000000000000000000000006
S214001008000000002000000020008210294ACF7B44
S2140010189DEF6D6B0000000000000000000000005F
S21400102800000000000000000000000000000000B3
S21400103800000000000000000000000000000000A3
S2140010480000000000000000000000000000000093
S2140010580000000000000000000000000000000083
S214001288000000000000000000008210494AEF7BC2
S2140012989EF76D6B000000000000000000000000D4
S2140012A80000000000000000000000000000000031
S2140012B80000000000000000000000000000000021
S2140012C80000000000000000000000000000000011
S2140012D80000000000000000000000000000000001
S214001508000000000000000021088210294AAE737F
S2140015189DEF6D6B0000000020000000000000003A
S21400152800000000000000000000000000000000AE
S214001538000000000000000000000000000000009E
S214001548000000000000000000000000000000008E
S214001558000000000000000000000000000000007E
S214001788000000000000000020008210494AEF7B9D
S2140017989DEF6D6B000000000000000000000000D8
S2140017A8000000000000000000000000000000002C
S2140017B8000000000000000000000000000000001C
S2140017C8000000000000000000000000000000000C
S2140017D800000000000000000000000000000000FC
S214001A08000000000000000020008210494ACF7B3A
S214001A189DEF6D6B00000000000000000000000055
S214001A2800000000000000000000000000000000A9
S214001A380000000000000000000000000000000099
S214001A480000000000000000000000000000000089
S214001A580000000000000000000000000000000079
S214001C88000000000000000020008210494ACF7BB8
S214001C989DEF6D6B000000000000000000000000D3
S214001CA80000000000000000000000000000000027
S214001CB80000000000000000000000000000000017
S214001CC80000000000000000000000000000000007
S214001CD800000000000000000000000000000000F7
S214001F08000000000000000020008210494ACF7B35
S214001F189DEF6D6B00000000000000000000000050
S214001F2800000000000000000000000000000000A4
S214001F380000000000000000000000000000000094
S214001F480000000000000000000000000000000084
S214001F580000000000000000000000000000000074
S214002188000000000000000020008210494ACF7BB3
S2140021989DEF6D6B000000000000000000000000CE
S2140021A80000000000000000000000000000000022
S2140021B80000000000000000000000000000000012
S2140021C80000000000000000000000000000000002
S2140021D800000000000000000000000000000000F2
S214002408000000000000000020008210494ACF7B30
S2140024189DEF6D6B0000000000000000000000004B
S214002428000000000000000000000000000000009F
S214002438000000000000000000000000000000008F
S214002448000000000000000000000000000000007F
S214002458000000000000000000000000000000006F
S214002688000000000000000020008210494ACF7BAE
S2140026989DEF6D6B000000000000000000000000C9
S2140026A8000000000000000000000000000000001D
S2140026B8000000000000000000000000000000000D
S2140026C800000000000000000000000000000000FD
S2140026D800000000000000000000000000000000ED
S214002908000000000000000020008210494ACF7B2B
S2140029189DEF6D6B00000000000000000000000046
S214002928000000000000000000000000000000009A
S214002938000000000000000000000000000000008A
S214002948000000000000000000000000000000007A
S214002958000000000000000000000000000000006A
S214002B88000000000000000020008210494ACF7BA9
S214002B989DEF6D6B000000000000000000000000C4
S214002BA80000000000000000000000000000000018
S214002BB80000000000000000000000000000000008
S214002BC800000000000000000000000000000000F8
S214002BD800000000000000000000000000000000E8
S214002E08000000000000000020008210494ACF7B26
S214002E189DEF6D6B00000000000000000000000041
S214002E280000000000000000000000000000000095
S214002E380000000000000000000000000000000085
S214002E480000000000000000000000000000000075
S214002E580000000000000000000000000000000065
S214003088000000000000000020008210494ACF7BA4
S2140030989DEF6D6B000000000000000000000000BF
S2140030A80000000000000000000000000000000013
S2140030B80000000000000000000000000000000003
S2140030C800000000000000000000000000000000F3
S2140030D800000000000000000000000000000000E3
S214003308000000000000000020008210494ACF7B21
S2140033189DEF6D6B0000000000000000000000003C
S2140033280000000000000000000000000000000090
S2140033380000000000000000000000000000000080
S2140033480000000000000000000000000000000070
S2140033580000000000000000000000000000000060
S214003588000000000000000020008210494ACF7B9F
S2140035989DEF6D6B000000000000000000000000BA
S2140035A8000000000000000000000000000000000E
S2140035B800000000000000000000000000000000FE
S2140035C800000000000000000000000000000000EE
S2140035D800000000000000000000000000000000DE
S214003808000000000000000020008210494ACF7B1C
S2140038189DEF6D6B00000000000000000000000037
S214003828000000000000000000000000000000008B
S214003838000000000000000000000000000000007B
S214003848000000000000000000000000000000006B
S214003858000000000000000000000000000000005B
S214003A88000000000000000020008210494ACF7B9A
S214003A989DEF6D6B000000000000000000000000B5
S214003AA80000000000000000000000000000000009
S214003AB800000000000000000000000000000000F9
S214003AC800000000000000000000000000000000E9
S214003AD800000000000000000000000000000000D9
S214003D08000000000000000020008210494ACF7B17
S214003D189DEF6D6B00000000000000000000000032
S214003D280000000000000000000000000000000086
S214003D380000000000000000000000000000000076
S214003D480000000000000000000000000000000066
S214003D580000000000000000000000000000000056
S214003F88000000000000000020008210494ACF7B95
S214003F989DEF6D6B000000000000000000000000B0
S214003FA80000000000000000000000000000000004
S214003FB800000000000000000000000000000000F4
S214003FC800000000000000000000000000000000E4
S214003FD800000000000000000000000000000000D4
S214004208000000000000000020008210494ACF7B12
S2140042189DEF6D6B0000000000000000000000002D
S2140042280000000000000000000000000000000081
S2140042380000000000000000000000000000000071
S2140042480000000000000000000000000000000061
S2140042580000000000000000000000000000000051
S214004488000000000000000020008210494ACF7B90
S2140044989DEF6D6B000000000000000000000000AB
S2140044A800000000000000000000000000000000FF
S2140044B800000000000000000000000000000000EF
S2140044C800000000000000000000000000000000DF
S2140044D800000000000000000000000000000000CF
S214004708000000000000000020008210494ACF7B0D
S2140047189DEF6D6B00000000000000000000000028
S214004728000000000000000000000000000000007C
S214004738000000000000000000000000000000006C
S214004748000000000000000000000000000000005C
S214004758000000000000000000000000000000004C
S214004988000000000000000020008210494ACF7B8B
S2140049989DEF6D6B000000000000000000000000A6
S2140049A800000000000000000000000000000000FA
S2140049B800000000000000000000000000000000EA
S2140049C800000000000000000000000000000000DA
S2140049D800000000000000000000000000000000CA
S214004C08000000000000000020008210494ACF7B08
S214004C189DEF6D6B00000000000000000000000023
S214004C280000000000000000000000000000000077
S214004C380000000000000000000000000000000067
S214004C480000000000000000000000000000000057
S214004C580000000000000000000000000000000047
S214004E88000000000000000020008210494ACF7B86
S214004E989DEF6D6B000000000000000000000000A1
S214004EA800000000000000000000000000000000F5
S214004EB800000000000000000000000000000000E5
S214004EC800000000000000000000000000000000D5
S214004ED800000000000000000000000000000000C5
S214005108000000000000000020008210494ACF7B03
S2140051189DEF6D6B0000000000000000000000001E
S2140051280000000000000000000000000000000072
S2140051380000000000000000000000000000000062
S2140051480000000000000000000000000000000052
S2140051580000000000000000000000000000000042
S214005388000000000000000020008210494ACF7B81
S2140053989DEF6D6B0000000000000000000000009C
S2140053A800000000000000000000000000000000F0
S2140053B800000000000000000000000000000000E0
S2140053C800000000000000000000000000000000D0
S2140053D800000000000000000000000000000000C0
S214005608000000000000000020008210494ACF7BFE
S2140056189DEF6D6B00000000000000000000000019
S214005628000000000000000000000000000000006D
S214005638000000000000000000000000000000005D
S214005648000000000000000000000000000000004D
S214005658000000000000000000000000000000003D
S214005888000000000000000020008210494ACF7B7C
S2140058989DEF6D6B00000000000000000000000097
S2140058A800000000000000000000000000000000EB
S2140058B800000000000000000000000000000000DB
S2140058C800000000000000000000000000000000CB
S2140058D800000000000000000000000000000000BB
S214005B08000000000000000020008210494ACF7BF9
S214005B189DEF6D6B00000000000000000000000014
S214005B280000000000000000000000000000000068
S214005B380000000000000000000000000000000058
S214005B480000000000000000000000000000000048
S214005B580000000000000000000000000000000038
S214005D88000000000000000020008210494ACF7B77
S214005D989DEF6D6B00000000000000000000000092
S214005DA800000000000000000000000000000000E6
S214005DB800000000000000000000000000000000D6
S214005DC800000000000000000000000000000000C6
S214005DD800000000000000000000000000000000B6
S214006008000000000000000020008210494ACF7BF4
S2140060189DEF6D6B0000000000000000000000000F
S2140060280000000000000000000000000000000063
S2140060380000000000000000000000000000000053
S2140060480000000000000000000000000000000043
S2140060580000000000000000000000000000000033
S214006288000000000000000020008210494ACF7B72
S2140062989DEF6D6B0000000000000000000000008D
S2140062A800000000000000000000000000000000E1
S2140062B800000000000000000000000000000000D1
S2140062C800000000000000000000000000000000C1
S2140062D800000000000000000000000000000000B1
S214006508000000000000000020008210494ACF7BEF
S2140065189DEF6D6B0000000000000000000000000A
S214006528000000000000000000000000000000005E
S214006538000000000000000000000000000000004E
S214006548000000000000000000000000000000003E
S214006558000000000000000000000000000000002E
S214006788000000000000000020008210494ACF7B6D
S2140067989DEF6D6B00000000000000000000000088
S2140067A800000000000000000000000000000000DC
S2140067B800000000000000000000000000000000CC
S2140067C800000000000000000000000000000000BC
S2140067D800000000000000000000000000000000AC
S214006A08000000000000000020008210494ACF7BEA
S214006A189DEF6D6B00000000000000000000000005
S214006A280000000000000000000000000000000059
S214006A380000000000000000000000000000000049
S214006A480000000000000000000000000000000039
S214006A580000000000000000000000000000000029
S214006C88000000000000000020008210494ACF7B68
S214006C989DEF6D6B00000000000000000000000083
S214006CA800000000000000000000000000000000D7
S214006CB800000000000000000000000000000000C7
S214006CC800000000000000000000000000000000B7
S214006CD800000000000000000000000000000000A7
S214006F08000000000000000020008210494ACF7BE5
S214006F189DEF6D6B00000000000000000000000000
S214006F280000000000000000000000000000000054
S214006F380000000000000000000000000000000044
S214006F480000000000000000000000000000000034
S214006F580000000000000000000000000000000024
S214007188000000000000000020008210494ACF7B63
S2140071989DEF6D6B0000000000000000000000007E
S2140071A800000000000000000000000000000000D2
S2140071B800000000000000000000000000000000C2
S2140071C800000000000000000000000000000000B2
S2140071D800000000000000000000000000000000A2
S214007408000000000000000020008210494ACF7BE0
S2140074189DEF6D6B000000000000000000000000FB
S214007428000000000000000000000000000000004F
S214007438000000000000000000000000000000003F
S214007448000000000000000000000000000000002F
S214007458000000000000000000000000000000001F
S214007688000000000000000020008210494ACF7B5E
S2140076989DEF6D6B00000000000000000000000079
S2140076A800000000000000000000000000000000CD
S2140076B800000000000000000000000000000000BD
S2140076C800000000000000000000000000000000AD
S2140076D8000000000000000000000000000000009D
S214007908000000000000000020008210494ACF7BDB
S2140079189DEF6D6B000000000000000000000000F6
S214007928000000000000000000000000000000004A
S214007938000000000000000000000000000000003A
S214007948000000000000000000000000000000002A
S214007958000000000000000000000000000000001A
S214007B88000000000000000020008210494ACF7B59
S214007B989DEF6D6B00000000000000000000000074
S214007BA800000000000000000000000000000000C8
S214007BB800000000000000000000000000000000B8
S214007BC800000000000000000000000000000000A8
S214007BD80000000000000000000000000000000098
S214007E08000000000000000020008210494ACF7BD6
S214007E189DEF6D6B000000000000000000000000F1
S214007E280000000000000000000000000000000045
S214007E380000000000000000000000000000000035
S214007E480000000000000000000000000000000025
S214007E580000000000000000000000000000000015
S214008088000000000000000020008210494ACF7B54
S2140080989DEF6D6B0000000000000000000000006F
S2140080A800000000000000000000000000000000C3
S2140080B800000000000000000000000000000000B3
S2140080C800000000000000000000000000000000A3
S2140080D80000000000000000000000000000000093
S214008308000000000000000020008210494ACF7BD1
S2140083189DEF6D6B000000000000000000000000EC
S2140083280000000000000000000000000000000040
S2140083380000000000000000000000000000000030
S2140083480000000000000000000000000000000020
S2140083580000000000000000000000000000000010
S214008588000000000000000020008210494ACF7B4F
S2140085989DEF6D6B0000000000000000000000006A
S2140085A800000000000000000000000000000000BE
S2140085B800000000000000000000000000000000AE
S2140085C8000000000000000000000000000000009E
S2140085D8000000000000000000000000000000008E
S214008808000000000000000020008210494ACF7BCC
S2140088189DEF6D6B000000000000000000000000E7
S214008828000000000000000000000000000000003B
S214008838000000000000000000000000000000002B
S214008848000000000000000000000000000000001B
S214008858000000000000000000000000000000000B
S214008A88000000000000000020008210494ACF7B4A
S214008A989DEF6D6B00000000000000000000000065
S214008AA800000000000000000000000000000000B9
S214008AB800000000000000000000000000000000A9
S214008AC80000000000000000000000000000000099
S214008AD80000000000000000000000000000000089
S214008D08000000000000000020008210494ACF7BC7
S214008D189DEF6D6B000000000000000000000000E2
S214008D280000000000000000000000000000000036
S214008D380000000000000000000000000000000026
S214008D480000000000000000000000000000000016
S214008D580000000000000000000000000000000006
S214008F88000000000000000020008210494ACF7B45
S214008F989DEF6D6B00000000000000000000000060
S214008FA800000000000000000000000000000000B4
S214008FB800000000000000000000000000000000A4
S214008FC80000000000000000000000000000000094
S214008FD80000000000000000000000000000000084
S214009208000000000000000020008210494ACF7BC2
S2140092189DEF6D6B000000000000000000000000DD
S2140092280000000000000000000000000000000031
S2140092380000000000000000000000000000000021
S2140092480000000000000000000000000000000011
S2140092580000000000000000000000000000000001
S214009488000000000000000020008210494ACF7B40
S2140094989DEF6D6B0000000000000000000000005B
S2140094A800000000000000000000000000000000AF
S2140094B8000000000000000000000000000000009F
S2140094C8000000000000000000000000000000008F
S2140094D8000000000000000000000000000000007F
S214009708000000000000000020008210494ACF7BBD
S2140097189DEF6D6B000000000000000000000000D8
S214009728000000000000000000000000000000002C
S214009738000000000000000000000000000000001C
S214009748000000000000000000000000000000000C
S21400975800000000000000000000000000000000FC
S214009988000000000000000020008210494ACF7B3B
S2140099989DEF6D6B00000000000000000000000056
S2140099A800000000000000000000000000000000AA
S2140099B8000000000000000000000000000000009A
S2140099C8000000000000000000000000000000008A
S2140099D8000000000000000000000000000000007A
S214009C08000000000000000020008210494ACF7BB8
S214009C189DEF6D6B000000000000000000000000D3
S214009C280000000000000000000000000000000027
S214009C380000000000000000000000000000000017
S214009C480000000000000000000000000000000007
S214009C5800000000000000000000000000000000F7
S214009E88000000000000000020008210494ACF7B36
S214009E989DEF6D6B00000000000000000000000051
S214009EA800000000000000000000000000000000A5
S214009EB80000000000000000000000000000000095
S214009EC80000000000000000000000000000000085
S214009ED80000000000000000000000000000000075
S21400A108000000000000000020008210494ACF7BB3
S21400A1189DEF6D6B000000000000000000000000CE
S21400A1280000000000000000000000000000000022
S21400A1380000000000000000000000000000000012
S21400A1480000000000000000000000000000000002
S21400A15800000000000000000000000000000000F2
S21400A388000000000000000020008210494ACF7B31
S21400A3989DEF6D6B0000000000000000000000004C
S21400A3A800000000000000000000000000000000A0
S21400A3B80000000000000000000000000000000090
S21400A3C80000000000000000000000000000000080
S21400A3D80000000000000000000000000000000070
S21400A608000000000000000020008210494ACF7BAE
S21400A6189DEF6D6B000000000000000000000000C9
S21400A628000000000000000000000000000000001D
S21400A638000000000000000000000000000000000D
S21400A64800000000000000000000000000000000FD
S21400A65800000000000000000000000000000000ED
S21400A888000000000000000020008210494ACF7B2C
S21400A8989DEF6D6B00000000000000000000000047
S21400A8A8000000000000000000000000000000009B
S21400A8B8000000000000000000000000000000008B
S21400A8C8000000000000000000000000000000007B
S21400A8D8000000000000000000000000000000006B
S21400AB08000000000000000020008210494ACF7BA9
S21400AB189DEF6D6B000000000000000000000000C4
S21400AB280000000000000000000000000000000018
S21400AB380000000000000000000000000000000008
S21400AB4800000000000000000000000000000000F8
S21400AB5800000000000000000000000000000000E8
S21400AD88000000000000000020008210494ACF7B27
S21400AD989DEF6D6B00000000000000000000000042
S21400ADA80000000000000000000000000000000096
S21400ADB80000000000000000000000000000000086
S21400ADC80000000000000000000000000000000076
S21400ADD80000000000000000000000000000000066
S21400B008000000000000000020008210494ACF7BA4
S21400B0189DEF6D6B000000000000000000000000BF
S21400B0280000000000000000000000000000000013
S21400B0380000000000000000000000000000000003
S21400B04800000000000000000000000000000000F3
S21400B05800000000000000000000000000000000E3
S21400B288000000000000000020008210494ACF7B22
S21400B2989DEF6D6B0000000000000000000000003D
S21400B2A80000000000000000000000000000000091
S21400B2B80000000000000000000000000000000081
S21400B2C80000000000000000000000000000000071
S21400B2D80000000000000000000000000000000061
S21400B508000000000000000020008210494ACF7B9F
S21400B5189DEF6D6B000000000000000000000000BA
S21400B528000000000000000000000000000000000E
S21400B53800000000000000000000000000000000FE
S21400B54800000000000000000000000000000000EE
S21400B55800000000000000000000000000000000DE
S21400B788000000000000000020008210494ACF7B1D
S21400B7989DEF6D6B00000000000000000000000038
S21400B7A8000000000000000000000000000000008C
S21400B7B8000000000000000000000000000000007C
S21400B7C8000000000000000000000000000000006C
S21400B7D8000000000000000000000000000000005C
S21400BA08000000000000000020008210494ACF7B9A
S21400BA189DEF6D6B000000000000000000000000B5
S21400BA280000000000000000000000000000000009
S21400BA3800000000000000000000000000000000F9
S21400BA4800000000000000000000000000000000E9
S21400BA5800000000000000000000000000000000D9
S21400BC88000000000000000020008210494ACF7B18
S21400BC989DEF6D6B00000000000000000000000033
S21400BCA80000000000000000000000000000000087
S21400BCB80000000000000000000000000000000077
S21400BCC80000000000000000000000000000000067
S21400BCD80000000000000000000000000000000057
S21400BF08000000000000000020008210494ACF7B95
S21400BF189DEF6D6B000000000000000000000000B0
S21400BF280000000000000000000000000000000004
S21400BF3800000000000000000000000000000000F4
S21400BF4800000000000000000000000000000000E4
S21400BF5800000000000000000000000000000000D4
S21400C188000000000000000020008210494ACF7B13
S21400C1989DEF6D6B0000000000000000000000002E
S21400C1A80000000000000000000000000000000082
S21400C1B80000000000000000000000000000000072
S21400C1C80000000000000000000000000000000062
S21400C1D80000000000000000000000000000000052
S21400C408000000000000000020008210494ACF7B90
S21400C4189DEF6D6B000000000000000000000000AB
S21400C42800000000000000000000000000000000FF
S21400C43800000000000000000000000000000000EF
S21400C44800000000000000000000000000000000DF
S21400C45800000000000000000000000000000000CF
S21400C688000000000000000020008210494ACF7B0E
S21400C6989DEF6D6B00000000000000000000000029
S21400C6A8000000000000000000000000000000007D
S21400C6B8000000000000000000000000000000006D
S21400C6C8000000000000000000000000000000005D
S21400C6D8000000000000000000000000000000004D
S21400C908000000000000000020008210494ACF7B8B
S21400C9189DEF6D6B000000000000000000000000A6
S21400C92800000000000000000000000000000000FA
S21400C93800000000000000000000000000000000EA
S21400C94800000000000000000000000000000000DA
S21400C95800000000000000000000000000000000CA
S21400CB88000000000000000020008210494ACF7B09
S21400CB989DEF6D6B00000000000000000000000024
S21400CBA80000000000000000000000000000000078
S21400CBB80000000000000000000000000000000068
S21400CBC80000000000000000000000000000000058
S21400CBD80000000000000000000000000000000048
S21400CE08000000000000000020008210494ACF7B86
S21400CE189DEF6D6B000000000000000000000000A1
S21400CE2800000000000000000000000000000000F5
S21400CE3800000000000000000000000000000000E5
S21400CE4800000000000000000000000000000000D5
S21400CE5800000000000000000000000000000000C5
S21400D088000000000000000020008210494ACF7B04
S21400D0989DEF6D6B0000000000000000000000001F
S21400D0A80000000000000000000000000000000073
S21400D0B80000000000000000000000000000000063
S21400D0C80000000000000000000000000000000053
S21400D0D80000000000000000000000000000000043
S21400D308000000000000000020008210494ACF7B81
S21400D3189DEF6D6B0000000000000000000000009C
S21400D32800000000000000000000000000000000F0
S21400D33800000000000000000000000000000000E0
S21400D34800000000000000000000000000000000D0
S21400D35800000000000000000000000000000000C0
S21400D588000000000000000020008210494ACF7BFF
S21400D5989DEF6D6B0000000000000000000000001A
S21400D5A8000000000000000000000000000000006E
S21400D5B8000000000000000000000000000000005E
S21400D5C8000000000000000000000000000000004E
S21400D5D8000000000000000000000000000000003E
S21400D808000000000000000020008210494ACF7B7C
S21400D8189DEF6D6B00000000000000000000000097
S21400D82800000000000000000000000000000000EB
S21400D83800000000000000000000000000000000DB
S21400D84800000000000000000000000000000000CB
S21400D85800000000000000000000000000000000BB
S21400DA88000000000000000020008210494ACF7BFA
S21400DA989DEF6D6B00000000000000000000000015
S21400DAA80000000000000000000000000000000069
S21400DAB80000000000000000000000000000000059
S21400DAC80000000000000000000000000000000049
S21400DAD80000000000000000000000000000000039
S21400DD08000000000000000020008210494ACF7B77
S21400DD189DEF6D6B00000000000000000000000092
S21400DD2800000000000000000000000000000000E6
S21400DD3800000000000000000000000000000000D6
S21400DD4800000000000000000000000000000000C6
S21400DD5800000000000000000000000000000000B6
S21400DF88000000000000000020008210494ACF7BF5
S21400DF989DEF6D6B00000000000000000000000010
S21400DFA80000000000000000000000000000000064
S21400DFB80000000000000000000000000000000054
S21400DFC80000000000000000000000000000000044
S21400DFD80000000000000000000000000000000034
S21400E208000000000000000020008210494ACF7B72
S21400E2189DEF6D6B0000000000000000000000008D
S21400E22800000000000000000000000000000000E1
S21400E23800000000000000000000000000000000D1
S21400E24800000000000000000000000000000000C1
S21400E25800000000000000000000000000000000B1
S21400E488000000000000000020008210494ACF7BF0
S21400E4989DEF6D6B0000000000000000000000000B
S21400E4A8000000000000000000000000000000005F
S21400E4B8000000000000000000000000000000004F
S21400E4C8000000000000000000000000000000003F
S21400E4D8000000000000000000000000000000002F
S21400E708000000000000000020008210494ACF7B6D
S21400E7189DEF6D6B00000000000000000000000088
S21400E72800000000000000000000000000000000DC
S21400E73800000000000000000000000000000000CC
S21400E74800000000000000000000000000000000BC
S21400E75800000000000000000000000000000000AC
S21400E988000000000000000020008210494ACF7BEB
S21400E9989DEF6D6B00000000000000000000000006
S21400E9A8000000000000000000000000000000005A
S21400E9B8000000000000000000000000000000004A
S21400E9C8000000000000000000000000000000003A
S21400E9D8000000000000000000000000000000002A
S21400EC08000000000000000020008210494ACF7B68
S21400EC189DEF6D6B00000000000000000000000083
S21400EC2800000000000000000000000000000000D7
S21400EC3800000000000000000000000000000000C7
S21400EC4800000000000000000000000000000000B7
S21400EC5800000000000000000000000000000000A7
S21400EE88000000000000000020008210494ACF7BE6
S21400EE989DEF6D6B00000000000000000000000001
S21400EEA80000000000000000000000000000000055
S21400EEB80000000000000000000000000000000045
S21400EEC80000000000000000000000000000000035
S21400EED80000000000000000000000000000000025
S21400F108000000000000000020008210494ACF7B63
S21400F1189DEF6D6B0000000000000000000000007E
S21400F12800000000000000000000000000000000D2
S21400F13800000000000000000000000000000000C2
S21400F14800000000000000000000000000000000B2
S21400F15800000000000000000000000000000000A2
S21400F388000000000000000020008210494ACF7BE1
S21400F3989DEF6D6B000000000000000000000000FC
S21400F3A80000000000000000000000000000000050
S21400F3B80000000000000000000000000000000040
S21400F3C80000000000000000000000000000000030
S21400F3D80000000000000000000000000000000020
S21400F608000000000000000020008210494ACF7B5E
S21400F6189DEF6D6B00000000000000000000000079
S21400F62800000000000000000000000000000000CD
S21400F63800000000000000000000000000000000BD
S21400F64800000000000000000000000000000000AD
S21400F658000000000000000000000000000000009D
S21400F888000000000000000020008210494ACF7BDC
S21400F8989DEF6D6B000000000000000000000000F7
S21400F8A8000000000000000000000000000000004B
S21400F8B8000000000000000000000000000000003B
S21400F8C8000000000000000000000000000000002B
S21400F8D8000000000000000000000000000000001B
S21400FB08000000000000000020008210494ACF7B59
S21400FB189DEF6D6B00000000000000000000000074
S21400FB2800000000000000000000000000000000C8
S21400FB3800000000000000000000000000000000B8
S21400FB4800000000000000000000000000000000A8
S21400FB580000000000000000000000000000000098
S21400FD88000000000000000020008210494ACF7BD7
S21400FD989DEF6D6B000000000000000000000000F2
S21400FDA80000000000000000000000000000000046
S21400FDB80000000000000000000000000000000036
S21400FDC80000000000000000000000000000000026
S21400FDD80000000000000000000000000000000016
S214010008000000000000000020008210494ACF7B53
S2140100189DEF6D6B0000000000000000000000006E
S21401002800000000000000000000000000000000C2
S21401003800000000000000000000000000000000B2
S21401004800000000000000000000000000000000A2
S2140100580000000000000000000000000000000092
S214010288000000000000000020008210494ACF7BD1
S2140102989DEF6D6B000000000000000000000000EC
S2140102A80000000000000000000000000000000040
S2140102B80000000000000000000000000000000030
S2140102C80000000000000000000000000000000020
S2140102D80000000000000000000000000000000010
S214010508000000000000000020008210494ACF7B4E
S2140105189DEF6D6B00000000000000000000000069
S21401052800000000000000000000000000000000BD
S21401053800000000000000000000000000000000AD
S214010548000000000000000000000000000000009D
S214010558000000000000000000000000000000008D
S214010788000000000000000020008210494ACF7BCC
S2140107989DEF6D6B000000000000000000000000E7
S2140107A8000000000000000000000000000000003B
S2140107B8000000000000000000000000000000002B
S2140107C8000000000000000000000000000000001B
S2140107D8000000000000000000000000000000000B
S214010A08000000000000000020008210494ACF7B49
S214010A189DEF6D6B00000000000000000000000064
S214010A2800000000000000000000000000000000B8
S214010A3800000000000000000000000000000000A8
S214010A480000000000000000000000000000000098
S214010A580000000000000000000000000000000088
S214010C88000000000000000020008210494ACF7BC7
S214010C989DEF6D6B000000000000000000000000E2
S214010CA80000000000000000000000000000000036
S214010CB80000000000000000000000000000000026
S214010CC80000000000000000000000000000000016
S214010CD80000000000000000000000000000000006
S214010F08000000000000000020008210494ACF7B44
S214010F189DEF6D6B0000000000000000000000005F
S214010F2800000000000000000000000000000000B3
S214010F3800000000000000000000000000000000A3
S214010F480000000000000000000000000000000093
S214010F580000000000000000000000000000000083
S214011188000000000000000020008210494ACF7BC2
S2140111989DEF6D6B000000000000000000000000DD
S2140111A80000000000000000000000000000000031
S2140111B80000000000000000000000000000000021
S2140111C80000000000000000000000000000000011
S2140111D80000000000000000000000000000000001
S214011408000000000000000020008210494ACF7B3F
S2140114189DEF6D6B0000000000000000000000005A
S21401142800000000000000000000000000000000AE
S214011438000000000000000000000000000000009E
S214011448000000000000000000000000000000008E
S214011458000000000000000000000000000000007E
S214011688000000000000000020008210494ACF7BBD
S2140116989DEF6D6B000000000000000000000000D8
S2140116A8000000000000000000000000000000002C
S2140116B8000000000000000000000000000000001C
S2140116C8000000000000000000000000000000000C
S2140116D800000000000000000000000000000000FC
S214011908000000000000000020008210494ACF7B3A
S2140119189DEF6D6B00000000000000000000000055
S21401192800000000000000000000000000000000A9
S2140119380000000000000000000000000000000099
S2140119480000000000000000000000000000000089
S2140119580000000000000000000000000000000079
S214011B88000000000000000020008210494ACF7BB8
S214011B989DEF6D6B000000000000000000000000D3
S214011BA80000000000000000000000000000000027
S214011BB80000000000000000000000000000000017
S214011BC80000000000000000000000000000000007
S214011BD800000000000000000000000000000000F7
S214011BE800000000000000000000000000000000E7
S214011BF800000000000000000000000000000000D7
S214011C0800000000000000000000000000000000C6
S214011C1800000000000000000000000000000000B6
S214011C2800000000000000000000000000000000A6
S214011C380000000000000000000000000000000096
S214011C480000000000000000000000000000000086
S214011C580000000000000000000000000000000076
S214011C680000000000000000000000000000000066
S214011C780000000000000000000000000000000056
S214011C880000000000000000000000000000000046
S214011C980000000000000000000000000000000036
S214011CA80000000000000000000000000000000026
S214011CB80000000000000000000000000000000016
S214011CC80000000000000000000000000000000006
S214011CD800000000000000000000000000000000F6
S214011CE800000000000000000000000000000000E6
S214011CF800000000000000000000000000000000D6
S214011D0800000000000000000000000000000000C5
S214011D1800000000000000000000000000000000B5
S214011D2800000000000000000000000000000000A5
S214011D380000000000000000000000000000000095
S214011D480000000000000000000000000000000085
S214011D580000000000000000000000000000000075
S214011D680000000000002000200000000000200005
S214011D780100010001000100000001000000000050
S214011D880000000000000000000000000000000045
S214011D980008000800000000000000000000000025
S214011DA80000000000000000000000000000000025
S214011DB80000000000000000000000000000000015
S214011DC800080008000800080000000000000000E5
S214011DD800000000000000000000000000000000F5
S214011DE800000000000000000000000000000000E5
S214011DF800000000000000000000000000000000D5
S214011E08000000000000000020008210494ACF7B35
S214011E189DEF6D6B00000000000000000000000050
S214011E2800000000000000000000000000000000A4
S214011E380000000000000000000000000000000094
S214011E480000000000000000000000000000000084
S214011E580000000000000000000000000000000074
S214011E680000000000000000000000000000000064
S214011E780000000000000000000000000000000054
S214011E880000000000000000000000000000000044
S214011E980000000000000000000000000000000034
S214011EA80000000000000000000000000000000024
S214011EB80000000000000000000000000000000014
S214011EC80000000000000000000000000000000004
S214011ED800000000000000000000000000000000F4
S214011EE800000000000000000000000000000000E4
S214011EF800000000000000000000000000000000D4
S214011F0800000000000000000000000000000000C3
S214011F1800000000000000000000000000000000B3
S214011F2800000000000000000000000000000000A3
S214011F380000000000000000000000000000000093
S214011F480000000000000000000000000000000083
S214011F580000000000000000000000000000000073
S214011F680000000000000000000000000000000063
S214011F780000000000000000000000000000000053
S214011F880000000000000000000000000000000043
S214011F980000000000000000000000000000000033
S214011FA80000000000000000000000000000000023
S214011FB80000000000000000000000000000000013
S214011FC80000000000000000000000000000000003
S214011FD800000000000000000000000000000000F3
S214011FE800000000000000000000200000000000C3
S214011FF801000100010001000100010000000000CD
S21401200800000000000000000000000000000000C2
S21401201801080108000000000000000000000000A0
S2140120280000000020002000000000000000000062
S2140120380000000000000000000000000000000092
S2140120480008000800080008000000000000000062
S2140120580000000000000000000000000000000072
S2140120680000000000000000000000000000000062
S2140120780000000000000000000000000000000052
S214012088000000000000000020008210494ACF7BB3
S2140120989DEF6D6B000000000000000000000000CE
S2140120A80000000000000000000000000000000022
S2140120B80000000000000000000000000000000012
S2140120C80000000000000000000000000000000002
S2140120D800000000000000000000000000000000F2
S2140120E800000000000000000000000000000000E2
S2140120F800000000000000000000000000000000D2
S21401210800000000000000000000000000000000C1
S21401211800000000000000000000000000000000B1
S21401212800000000000000000000000000000000A1
S2140121380000000000000000000000000000000091
S2140121480000000000000000000000000000000081
S2140121580000000000000000000000000000000071
S2140121680000000000000000000000000000000061
S2140121780000000000000000000000000000000051
S2140121880000000000000000000000000000000041
S2140121980000000000000000000000000000000031
S2140121A80000000000000000000000000000000021
S2140121B80000000000000000000000000000000011
S2140121C80000000000000000000000000000000001
S2140121D800000000000000000000000000000000F1
S2140121E800000000000000000000000000000000E1
S2140121F800000000000000000000000000000000D1
S21401220800000000000000000000000000000000C0
S21401221800000000000000000000000000000000B0
S21401222800000000000000000000000000000000A0
S2140122380000000000000000000000000000000090
S2140122480000000000000000000000000000000080
S214012258000000000000000000000100010001006D
S2140122680000000020080000000000000200010035
S2140122782000200000000000000000000000000010
S2140122882000000000000000000000000000000020
S21401229820002000200000000000000000000100CF
S2140122A8010001000100000000000000000000001D
S2140122B800000000000000002000200000000000D0
S2140122C800000000000000000000010001000100FD
S2140122D800000000000000000000000000000000F0
S2140122E800000000000000000000000000000000E0
S2140122F800000000000000000000000000000000D0
S214012308000000000000000020008210494ACF7B30
S2140123189DEF6D6B0000000000000000000000004B
S214012328000000000000000000000000000000009F
S214012338000000000000000000000000000000008F
S214012348000000000000000000000000000000007F
S214012358000000000000000000000000000000006F
S214012368000000000000000000000000000000005F
S214012378000000000000000000000000000000004F
S214012388000000000000000000000000000000003F
S214012398000000000000000000000000000000002F
S2140123A8000000000000000000000000000000001F
S2140123B8000000000000000000000000000000000F
S2140123C800000000000000000000000000000000FF
S2140123D800000000000000000000000000000000EF
S2140123E800000000000000000000000000000000DF
S2140123F800000000000000000000000000000000CF
S21401240800000000000000000000000000000000BE
S21401241800000000000000000000000000000000AE
S214012428000000000000000000000000000000009E
S214012438000000000000000000000000000000008E
S214012448000000000000000000000000000000007E
S214012458000000000000000000000000000000006E
S214012468000000000000000000000000000000005E
S214012478000000000000000000000000000000004E
S214012488000000000000000000000000000000003E
S214012498000000000000000000000000000000002E
S2140124A8000000000000000000000000000000001E
S2140124B8000000000000000000000000000000000E
S2140124C800000000000000000000000000000000FE
S2140124D800000000000000000000010001000100EB
S2140124E800000000000020080000000001000100B4
S2140124F800000000000000002000000000000000AE
S21401250800000000000000000000000800000000B5
S214012518200020002000000000000100010001004A
S214012528010001000100000000000000000000009A
S214012538000000000000000020002000000000004D
S214012548000000000000000000000100010001007A
S214012558000000000000000000000000000000006D
S214012568000000000000000000000000000000005D
S214012578000000000000000000000000000000004D
S214012588000000000000000020008210494ACF7BAE
S2140125989DEF6D6B000000000000000000000000C9
S2140125A8000000000000000000000000000000001D
S2140125B8000000000000000000000000000000000D
S2140125C800000000000000000000000000000000FD
S2140125D800000000000000000000000000000000ED
S2140125E800000000000000000000000000000000DD
S2140125F800000000000000000000000000000000CD
S21401260800000000000000000000000000000000BC
S21401261800000000000000000000000000000000AC
S214012628000000000000000000000000000000009C
S214012638000000000000000000000000000000008C
S214012648000000000000000000000000000000007C
S214012658000000000000000000000000000000006C
S214012668000000000000000000000000000000005C
S214012678000000000000000000000000000000004C
S214012688000000000000000000000000000000003C
S214012698000000000000000000000000000000002C
S2140126A8000000000000000000000000000000001C
S2140126B8000000000000000000000000000000000C
S2140126C800000000000000000000000000000000FC
S2140126D800000000000000000000000000000000EC
S2140126E800000000000000000000000000000000DC
S2140126F800000000000000000000000000000000CC
S21401270800000000000000000000000000000000BB
S21401271800000000000000000000000000000000AB
S214012728000000000000000000000000000000009B
S214012738000000000000000000000000000000008B
S214012748000000000000000000000000000000007B
S2140127580000000000000100010001000000000068
S21401276800000000010001000000000040004000D9
S214012778000020000000000000000000000000002B
S214012788000000000000000000000000000000003B
S21401279800000000000000002000200020002000AB
S2140127A820000000000000000000000000002000DB
S2140127B80100010000000000000000000000000009
S2140127C800000000000000000000000000000000FB
S2140127D800000000000000000000000000000000EB
S2140127E800000000000000000000000000000000DB
S2140127F800000000000000000000000000000000CB
S214012808000000000000000020008210494ACF7B2B
S2140128189DEF6D6B00000000000000000000000046
S214012828000000000000000000000000000000009A
S214012838000000000000000000000000000000008A
S214012848000000000000000000000000000000007A
S214012858000000000000000000000000000000006A
S214012868000000000000000000000000000000005A
S214012878000000000000000000000000000000004A
S214012888000000000000000000000000000000003A
S214012898000000000000000000000000000000002A
S2140128A8000000000000000000000000000000001A
S2140128B8000000000000000000000000000000000A
S2140128C800000000000000000000000000000000FA
S2140128D800000000000000000000000000000000EA
S2140128E800000000000000000000000000000000DA
S2140128F800000000000000000000000000000000CA
S21401290800000000000000000000000000000000B9
S21401291800000000000000000000000000000000A9
S2140129280000000000000000000000000000000099
S2140129380000000000000000000000000000000089
S2140129480000000000000000000000000000000079
S2140129580000000000000000000000000000000069
S2140129680000000000000000000000000000000059
S2140129780000000000000000000000000000000049
S2140129880000000000000000000000000000000039
S2140129980000000000000000000000000000000029
S2140129A80000000000000000000000000000000019
S2140129B80000000000000000000000000000000009
S2140129C800000000000000000000000000000000F9
S2140129D800000000000001000100010000000000E6
S2140129E80000010001000100000000002000200096
S2140129F8000000000000000040088110A210C31863
S214012A08E318032124212421242125212521042119
S214012A18E320E318C218A2108108600020002000F5
S214012A282000000020002000000000000000000038
S214012A380100010000000000000000000000000086
S214012A480000000000000000000000000000000078
S214012A580000000000000000000000000000000068
S214012A680000000000000000000000000000000058
S214012A780000000000000000000000000000000048
S214012A88000000000000000020008210494ACF7BA9
S214012A989DEF6D6B000000000000000000000000C4
S214012AA80000000000000000000000000000000018
S214012AB80000000000000000000000000000000008
S214012AC800000000000000000000000000000000F8
S214012AD800000000000000000000000000000000E8
S214012AE800000000000000000000000000000000D8
S214012AF800000000000000000000000000000000C8
S214012B0800000000000000000000000000000000B7
S214012B1800000000000000000000000000000000A7
S214012B280000000000000000000000000000000097
S214012B380000000000000000000000000000000087
S214012B480000000000000000000000000000000077
S214012B580000000000000000000000000000000067
S214012B680000000000000000000000000000000057
S214012B780000000000000000000000000000000047
S214012B880000000000000000000000000000000037
S214012B980000000000000000000000000000000027
S214012BA80000000000000000000000000000000017
S214012BB80000000000000000000000000000000007
S214012BC800000000000000000000000000000000F7
S214012BD800000000000000000000000000000000E7
S214012BE800000000000000000000000000000000D7
S214012BF800000000000000000000000000000000C7
S214012C0800000000000000000000000000000000B6
S214012C1800000000000000000000000000000000A6
S214012C280000000000000000000000000000000096
S214012C380000000000000000000000000000000086
S214012C480000000000000000000000000000000076
S214012C5800080008000020002000200000000000F6
S214012C68000000000000000040002000000842109C
S214012C788108C210032186318B52B083B4A457B59C
S214012C88F9CD3AD6BBDEFCDE1CDF1BDF1BD7FAD636
S214012C987ADE19CE56B572946E736A528631E42876
S214012CA8A32062182110000800000000010021007E
S214012CB80000000000000000000000000000000006
S214012CC801000100000000000000000020002000B4
S214012CD800000000000000000000000000000000E6
S214012CE800000000000000000000000000000000D6
S214012CF800000000000000000000000000000000C6
S214012D08000000000000000020008210494ACF7B26
S214012D189DEF6D6B00000000000000000000000041
S214012D280000000000000000000000000000000095
S214012D380000000000000000000000000000000085
S214012D480000000000000000000000000000000075
S214012D580000000000000000000000000000000065
S214012D680000000000000000000000000000000055
S214012D780000000000000000000000000000000045
S214012D880000000000000000000000000000000035
S214012D980000000000000000000000000000000025
S214012DA80000000000000000000000000000000015
S214012DB80000000000000000000000000000000005
S214012DC800000000000000000000000000000000F5
S214012DD800000000000000000000000000000000E5
S214012DE800000000000000000000000000000000D5
S214012DF800000000000000000000000000000000C5
S214012E0800000000000000000000000000000000B4
S214012E1800000000000000000000000000000000A4
S214012E280000000000000000000000000000000094
S214012E380000000000000000000000000000000084
S214012E480000000000000000000000000000000074
S214012E580000000000000000000000000000000064
S214012E680000000000000000000000000000000054
S214012E780000000000000000000000000000000044
S214012E880000000000000000000000000000000034
S214012E980000000000000000000000000000000024
S214012EA80000000000000000000000000000000014
S214012EB80000000000000000000000000000000004
S214012EC800000000000000000000000000000000F4
S214012ED80008000800002000200020000000000074
S214012EE80000000020000000000000002531EC6210
S214012EF83084139DD6B538C67AD6DCE63DEF7FFF1B
S214012F089FFFBFFFDFFFFFFFFFFFFFF7FFF7FFF79B
S214012F18DFFFBFFF7EF73DEFDCDE7AD6F8C597BD4B
S214012F2855B5108C4A52C42821080000010001003A
S214012F380000000000000000000000000000000083
S214012F480100010000000000000000002000200031
S214012F580000000000000000000000000000000063
S214012F680000000000000000000000000000000053
S214012F780000000000000000000000000000000043
S214012F88000000000000000020008210494ACF7BA4
S214012F989DEF6D6B000000000000000000000000BF
S214012FA80000000000000000000000000000000013
S214012FB80000000000000000000000000000000003
S214012FC800000000000000000000000000000000F3
S214012FD800000000000000000000000000000000E3
S214012FE800000000000000000000000000000000D3
S214012FF800000000000000000000000000000000C3
S21401300800000000000000000000000000000000B2
S21401301800000000000000000000000000000000A2
S2140130280000000000000000000000000000000092
S2140130380000000000000000000000000000000082
S2140130480000000000000000000000000000000072
S2140130580000000000000000000000000000000062
S2140130680000000000000000000000000000000052
S2140130780000000000000000000000000000000042
S2140130880000000000000000000000000000000032
S2140130980000000000000000000000000000000022
S2140130A80000000000000000000000000000000012
S2140130B80000000000000000000000000000000002
S2140130C800000000000000000000000000000000F2
S2140130D800000000000000000000000000000000E2
S2140130E800000000000000000000000000000000D2
S2140130F800000000000000000000000000000000C2
S21401310800000000000000000000000000000000B1
S21401311800000000000000000000000000000000A1
S2140131280000000000000000000000000000000091
S2140131380000000000000000000000000000000081
S2140131480000000000000000000000000000000071
S21401315800000000200000000000200800002000F9
S214013168000021002100E418A731AA52CF7B96B5AA
S214013178DBD6DEEFFEEFFCE7FAD7F8C7D5AFF3A745
S214013188F39FF29FD297D297B297B297939F939F46
S214013198F297F397F5A7F6B7F8C7FAD7FCE7FEF75D
S2140131A8FDF7FAD633A56D6B894AA631C3186108AF
S2140131B80000000020002000200020002000200041
S2140131C800000100010801080000010000002000BD
S2140131D800000000000000000000000000000000E1
S2140131E800000000000000000000000000000000D1
S2140131F800000000000000000000000000000000C1
S214013208000000000000000020008210494ACF7B21
S2140132189DEF6D6B0000000000000000000000003C
S2140132280000000000000000000000000000000090
S2140132380000000000000000000000000000000080
S2140132480000000000000000000000000000000070
S2140132580000000000000000000000000000000060
S2140132680000000000000000000000000000000050
S2140132780000000000000000000000000000000040
S2140132880000000000000000000000000000000030
S2140132980000000000000000000000000000000020
S2140132A80000000000000000000000000000000010
S2140132B80000000000000000000000000000000000
S2140132C800000000000000000000000000000000F0
S2140132D800000000000000000000000000000000E0
S2140132E800000000000000000000000000000000D0
S2140132F800000000000000000000000000000000C0
S21401330800000000000000000000000000000000AF
S214013318000000000000000000000000000000009F
S214013328000000000000000000000000000000008F
S214013338000000000000000000000000000000007F
S214013348000000000000000000000000000000006F
S214013358000000000000000000000000000000005F
S214013368000000000000000000000000000000004F
S214013378000000000000000000000000000000003F
S214013388000000000000000000000000000000002F
S214013398000000000000000000000000000000001F
S2140133A8000000000000000000000000000000000F
S2140133B800000000000000000000000000000000FF
S2140133C800000000000000000000000000000000EF
S2140133D80000210000000000000020080000200076
S2140133E86108A2106529AF7318C65DEF7DEF9EEFE1
S2140133F89EEFBEE73BD796AE12968E752A550845C0
S214013408C63CC634C634A634A6348634873C873CC4
S214013418E734073509454C5DAF75539ED7BE39D796
S2140134289BE79CEF7CEF7CEF1BDFB6B5AE732842BB
S214013438C31861082000200060002000200000005A
S2140134480000010001000108000000000000000063
S214013458000000000000000000000000000000005E
S214013468000000000000000000000000000000004E
S214013478000000000000000000000000000000003E
S214013488000000000000000020008210494ACF7B9F
S2140134989DEF6D6B000000000000000000000000BA
S2140134A8000000000000000000000000000000000E
S2140134B800000000000000000000000000000000FE
S2140134C800000000000000000000000000000000EE
S2140134D800000000000000000000000000000000DE
S2140134E800000000000000000000000000000000CE
S2140134F800000000000000000000000000000000BE
S21401350800000000000000000000000000000000AD
S214013518000000000000000000000000000000009D
S214013528000000000000000000000000000000008D
S214013538000000000000000000000000000000007D
S214013548000000000000000000000000000000006D
S214013558000000000000000000000000000000005D
S214013568000000000000000000000000000000004D
S214013578000000000000000000000000000000003D
S214013588000000000000000000000000000000002D
S214013598000000000000000000000000000000001D
S2140135A8000000000000000000000000000000000D
S2140135B800000000000000000000000000000000FD
S2140135C800000000000000000000000000000000ED
S2140135D800000000000000000000000000000000DD
S2140135E800000000000000000000000000000000CD
S2140135F800000000000000000000000000000000BD
S21401360800000000000000000000000000000000AC
S214013618000000000000000000000000000000009C
S214013628000000000000000000000000000000008C
S214013638000000000000000000000000000000007C
S214013648000000000000000000000000000000006C
S2140136580108010801080100410800000000852949
S214013668D08356B5DBDE9DEFFCE7FACFF397CC5E49
S214013678283EE635641D2215220D210500050005A4
S2140136882005200520052005200520052005000524
S2140136982005200520052005200D410D6115621D18
S2140136A8A425283E0D6FD49FFACFFDE79CE71CE7BB
S2140136B839CE8F73252901000100000000000000A3
S2140136C800000000000020080000010001000000C2
S2140136D800000000000000000000000000000000DC
S2140136E800000000000000000000000000000000CC
S2140136F800000000000000000000000000000000BC
S214013708000000000000000020008210494ACF7B1C
S2140137189DEF6D6B00000000000000000000000037
S214013728000000000000000000000000000000008B
S214013738000000000000000000000000000000007B
S214013748000000000000000000000000000000006B
S214013758000000000000000000000000000000005B
S214013768000000000000000000000000000000004B
S214013778000000000000000000000000000000003B
S214013788000000000000000000000000000000002B
S214013798000000000000000000000000000000001B
S2140137A8000000000000000000000000000000000B
S2140137B800000000000000000000000000000000FB
S2140137C800000000000000000000000000000000EB
S2140137D800000000000000000000000000000000DB
S2140137E800000000000000000000000000000000CB
S2140137F800000000000000000000000000000000BB
S21401380800000000000000000000000000000000AA
S214013818000000000000000000000000000000009A
S214013828000000000000000000000000000000008A
S214013838000000000000000000000000000000007A
S214013848000000000000000000000000000000006A
S214013858000000000000000000000000000000005A
S214013868000000000000000000000000000000004A
S214013878000000000000000000000000000000003A
S214013888000000000000000000000000000000002A
S214013898000000000000000000000000000000001A
S2140138A8000000000000000000000000000000000A
S2140138B800000000000000000000000000000000FA
S2140138C800000000000000000000000000000000EA
S2140138D80108010801080100210886318D7375ADBC
S2140138E87AD65EF7DFFFFAD6339EAE758A4D252562
S2140138F8241DE214C10CE10C010D0005200540054C
S21401390840054005400540054005400540052105A0
S21401391820052005200500050005E004E004E00474
S214013928C004041D47356B55AF7555A61AD7BEF7A3
S214013938FFFF7AD635A52D6B042101000000210072
S2140139480000000000000000000000000100000068
S2140139580000000000000000000000000000000059
S2140139680000000000000000000000000000000049
S2140139780000000000000000000000000000000039
S214013988000000000000000020008210494ACF7B9A
S2140139989DEF6D6B000000000000000000000000B5
S2140139A80000000000000000000000000000000009
S2140139B800000000000000000000000000000000F9
S2140139C800000000000000000000000000000000E9
S2140139D800000000000000000000000000000000D9
S2140139E800000000000000000000000000000000C9
S2140139F800000000000000000000000000000000B9
S214013A0800000000000000000000000000000000A8
S214013A180000000000000000000000000000000098
S214013A280000000000000000000000000000000088
S214013A380000000000000000000000000000000078
S214013A480000000000000000000000000000000068
S214013A580000000000000000000000000000000058
S214013A680000000000000000000000000000000048
S214013A780000000000000000000000000000000038
S214013A880000000000000000000000000000000028
S214013A980000000000000000000000000000000018
S214013AA80000000000000000000000000000000008
S214013AB800000000000000000000000000000000F8
S214013AC800000000000000000000000000000000E8
S214013AD800000000000000000000000000000000D8
S214013AE800000000000000000000000000000000C8
S214013AF800000000000000000000000000000000B8
S214013B0800000000000000000000000000000000A7
S214013B180000000000000000000000000000000097
S214013B280000000000000000000000000000000087
S214013B380000000000000000000000000000000077
S214013B480000000000000000000000000000000067
S214013B580000000000008210E841F083BAD6FFFF9B
S214013B68FBDFF7BFB28FAA56A425E004E004E00CF9
S214013B780005000520054005200520054105410DE5
S214013B884005200520052005200D200D200D200DBF
S214013B98410D410D210D210D210D210D4105410537
S214013BA8200520050005C104E20C862DAB5630879A
S214013BB8D7BFFBDFFCE777BE6D6B8631A420010813
S214013BC800080008200000000000000000000000B7
S214013BD800000000000000000000000000000000D7
S214013BE800000000000000000000000000000000C7
S214013BF800000000000000000000000000000000B7
S214013C08000000000000000020008210494ACF7B17
S214013C189DEF6D6B00000000000000000000000032
S214013C280000000000000000000000000000000086
S214013C380000000000000000000000000000000076
S214013C480000000000000000000000000000000066
S214013C580000000000000000000000000000000056
S214013C680000000000000000000000000000000046
S214013C780000000000000000000000000000000036
S214013C880000000000000000000000000000000026
S214013C980000000000000000000000000000000016
S214013CA80000000000000000000000000000000006
S214013CB800000000000000000000000000000000F6
S214013CC800000000000000000000000000000000E6
S214013CD800000000000000000000000000000000D6
S214013CE800000000000000000000000000000000C6
S214013CF800000000000000000000000000000000B6
S214013D0800000000000000000000000000000000A5
S214013D180000000000000000000000000000000095
S214013D280000000000000000000000000000000085
S214013D380000000000000000000000000000000075
S214013D480000000000000000000000000000000065
S214013D580000000000000000000000000000000055
S214013D680000000000000000000000000000000045
S214013D780000000000000000000000000000000035
S214013D880000000000000000000000000000000025
S214013D980000000000000000000000000000000015
S214013DA80000000000000000000000000000000005
S214013DB800000000000000000000000000000000F5
S214013DC800000000000000000000000000000000E5
S214013DD8000001082100CB5A18C61CE7BEF75CE7AD
S214013DE813A68D6D083DC314E104010D210D000DC8
S214013DF8400540054005400520052005200520050D
S214013E084105400520052005200D200D200D200D1B
S214013E1820052005010D210D210D210D4105410526
S214013E284105410541052205E20CC314E424C634C4
S214013E380D6574A6BAD7FDEF3BE7F4A42D7346319A
S214013E48010800000000000020002000000000001B
S214013E580000000000000000000000000000000054
S214013E680000000000000000000000000000000044
S214013E780000000000000000000000000000000034
S214013E88000000000000000020008210494ACF7B95
S214013E989DEF6D6B000000000000000000000000B0
S214013EA80000000000000000000000000000000004
S214013EB800000000000000000000000000000000F4
S214013EC800000000000000000000000000000000E4
S214013ED800000000000000000000000000000000D4
S214013EE800000000000000000000000000000000C4
S214013EF800000000000000000000000000000000B4
S214013F0800000000000000000000000000000000A3
S214013F180000000000000000000000000000000093
S214013F280000000000000000000000000000000083
S214013F380000000000000000000000000000000073
S214013F480000000000000000000000000000000063
S214013F580000000000000000000000000000000053
S214013F680000000000000000000000000000000043
S214013F780000000000000000000000000000000033
S214013F880000000000000000000000000000000023
S214013F980000000000000000000000000000000013
S214013FA80000000000000000000000000000000003
S214013FB800000000000000000000000000000000F3
S214013FC800000000000000000000000000000000E3
S214013FD800000000000000000000000000000000D3
S214013FE800000000000000000000000000000000C3
S214013FF800000000000000000000000000000000B3
S21401400800000000000000000000000000000000A2
S2140140180000000000000000000000000000000092
S2140140280000000000000000000000000000000082
S2140140380000000000000000000000000000000072
S2140140480000000000000000000000000000210839
S2140140586108A631AE7378C6FCEFF9D75297E94DD9
S214014068A525620D20052005400540052105210DE1
S21401407840054005400521052105210521052105A5
S2140140882105210521052105410541054005400574
S2140140984005400540052005210521054105210D5E
S2140140A82005200D200D200D200500052005000502
S2140140B80105A4254A5E94A7FBE77BDF38CEB39CAF
S2140140C8E8414208200020002000200000000000EF
S2140140D800000000000000000000000000000000D2
S2140140E800000000000000000000000000000000C2
S2140140F800000000000000000000000000000000B2
S214014108000000000000000020008210494ACF7B12
S2140141189DEF6D6B0000000000000000000000002D
S2140141280000000000000000000000000000000081
S2140141380000000000000000000000000000000071
S2140141480000000000000000000000000000000061
S2140141580000000000000000000000000000000051
S2140141680000000000000000000000000000000041
S2140141780000000000000000000000000000000031
S2140141880000000000000000000000000000000021
S2140141980000000000000000000000000000000011
S2140141A80000000000000000000000000000000001
S2140141B800000000000000000000000000000000F1
S2140141C800000000000000000000000000000000E1
S2140141D800000000000000000000000000000000D1
S2140141E800000000000000000000000000000000C1
S2140141F800000000000000000000000000000000B1
S21401420800000000000000000000000000000000A0
S2140142180000000000000000000000000000000090
S2140142280000000000000000000000000000000080
S2140142380000000000000000000000000000000070
S2140142480000000000000000000000000000000060
S2140142580000000000000000000000000000000050
S2140142680000000000000000000000000000000040
S2140142780000000000000000000000000000000030
S2140142880000000000000000000000000000000020
S2140142980000000000000000000000000000000010
S2140142A80000000000000000000000000000000000
S2140142B800000000000000000000000000000000F0
S2140142C80000000000000000000000004108821005
S2140142D8284230841BDFFEF759D7D4AE2A55631C13
S2140142E8C10C210540054005400540052105210D65
S2140142F84105410541054105410521052105420DB7
S21401430821052105410541054105410541054105AF
S2140143184005400540054105410541054105210D7A
S214014328410D200D200D400D400D410D4105210583
S2140143380005C10CE52CAC65D5AEBCEF9EF75DEF6C
S214014348D39C873161002000200020000000000077
S214014358000000000000000000000000000000004F
S214014368000000000000000000000000000000003F
S214014378000000000000000000000000000000002F
S214014388000000000000000020008210494ACF7B90
S2140143989DEF6D6B000000000000000000000000AB
S2140143A800000000000000000000000000000000FF
S2140143B800000000000000000000000000000000EF
S2140143C800000000000000000000000000000000DF
S2140143D800000000000000000000000000000000CF
S2140143E800000000000000000000000000000000BF
S2140143F800000000000000000000000000000000AF
S214014408000000000000000000000000000000009E
S214014418000000000000000000000000000000008E
S214014428000000000000000000000000000000007E
S214014438000000000000000000000000000000006E
S214014448000000000000000000000000000000005E
S214014458000000000000000000000000000000004E
S214014468000000000000000000000000000000003E
S214014478000000000000000000000000000000002E
S214014488000000000000000000000000000000001E
S214014498000000000000000000000000000000000E
S2140144A800000000000000000000000000000000FE
S2140144B800000000000000000000000000000000EE
S2140144C800000000000000000000000000000000DE
S2140144D800000000000000000000000000000000CE
S2140144E800000000000000000000000000000000BE
S2140144F800000000000000000000000000000000AE
S214014508000000000000000000000000000000009D
S214014518000000000000000000000000000000008D
S214014528000000000000000000000000000000007D
S214014538010001002000200000080008000000001B
S214014548200020000200010001080100A218AA5A52
S21401455896B55DEFFCE7B5AF6A668425410520058B
S2140145686105400520054105400540054105210531
S214014578410D410D40054005400540052105420D08
S214014588210D210D4005400540052005010D220D90
S214014598210D210D200D200D400540054105410541
S2140145A82005210540054005600561052105210511
S2140145B82105010501054105441D0E7FF6BFFADFF9
S2140145C89BEF38C6663100000000000001000108B4
S2140145D80000000000000108010001002000400062
S2140145E800000000010801080000000000000000AB
S2140145F800000000000000000000000000000000AD
S214014608000000000000000020008210494ACF7B0D
S2140146189DEF6D6B00000000000000000000000028
S214014628000000000000000000000000000000007C
S214014638000000000000000000000000000000006C
