S02B0000433A2F55736572732F6C69756C692F4465736B746F702F496E746572636570746F72312E302F4D6195
S21400002004FCFFDE1503C0DA150280DA150140DA9B
S214000030150000DA3A3111000C1040421E0340024F
S2140000400C0042421E304002065A0000F404000231
S214000050046E354217000042340180020460AA5242
S2140000600E5480427400C00204E0EE5A3A40D54274
S2140000707400C00204C0DD5A3A80D3423A70944AF3
S2140000801E158002B400C00204A0CC5A3A40D542E5
S214000090F400C0020480FB5A3A80D3423A70944A75
S2140000A01E0D8002140CC0023A20D3423A38D54ABC
S2140000B03AC8954214064002360140520603000034
S2140000C0B40380020400805206050000B4FCBF02A0
S2140000D004008052060200003A8815000600000060
S2140000E034C83F0204100C42350280423503804279
S2140000F0F4040002046E3542170040424400404AB1
S21400010015004042062B000034C83F020418004287
S2140001103703404234008002C4FFBF52350380429A
S21400012034008802040080523A7054521E05800241
S21400013034009002040080523A7054521E0F80021F
S214000140061C0000F4040002046A35421700404210
S2140001501E184002F4040002046B354217004042A9
S2140001601E144002F4040002046A354234004002C1
S2140001704400404A15004042060E0000F404000207
S214000180046A354217004042260A4002F404000280
S214000190046B3542170040421E064002F40400027B
S2140001A0046B3542340040024400404A1500404289
S2140001B0060000001703C0DA170280DA170140DADB
S2140001C0170000DA0404C0DE04FF7FEF3A0880EF71
S2140002003400C1060400C0DE3A30F6DED401C0DE9B
S2140002103A30F6DEF4048006047896D6F404000637
S214000220047E36C634008000041384103A6800103A
S2140002303400C1060400C0DEF4048004046AB594E9
S21400024015000090F4048004046BB594150000902B
S214000250FA7001003A70010034C8BF0404008094AC
S2140002603500009034C8BF04040880943500009020
S21400027034C8BF04040C80943500009034C83F0195
S214000280040008213A880B0080CE0000406500007C
S214000290C05F00003400000104460521C06F000066
S2140002A0C0840000F4048004046CB59415008090AB
S2140002B040650000C05F0000B4000001844A1B21B6
S2140002C0C06F000004FCFFDE150300D8150200D83E
S2140002D0150100D8150000D83A880BD8F40480041D
S2140002E0046CB59417000091003B01003A8809D8C9
S2140002F09404400154098001807600000404C0DEA6
S214000300F4048004046CB5941700009134C87F018F
S2140003100408402980CA0000743C020104603421AD
S21400032034C87F0104004829406B00004065000087
S214000330C05F00007402000104581D21C06F000059
S214000340340B01010460072134C87F0104004829EA
S214000350406B00004065000034030001845C3321DC
S214000360C06F0000340B01010460072134C87F0110
S21400037004004829406B000040650000B4030001FB
S21400038004610921C06F0000340B010104600721DD
S21400039034C87F0104004829406B00004065000017
S2140003A03404000184651F21C06F0000C0DB00001C
S2140003B040E00000F4048004046AB5941700C0947A
S2140003C026FEFF0434C87F010400482934002001BB
S2140003D0C4FF3F2100EA0000F4048004046BB594D7
S2140003E01700C09426FEFF04C0DB000034C83F019F
S2140003F00400082180EC00003A882710340020050D
S214000400C4FF3FA53AC8EBA4B400000504A821A584
S2140004103A202BAD3400000104C409213A880BA809
S214000420405E00003A882B10F4048004046DB594F6
S214000430150040953A8809A834C87F01040C402965
S21400044080CA0000F4040005046C35A5170000A55A
S2140004502E0100AD06280000540000018057000061
S21400046034C8BF04040080943400C004C4FFFF9C5A
S2140004703500C09440650000C05F000074010001B4
S214000480044F3121C06F000004FCFFDE150300D8C6
S214000490150200D8150100D8150000D83A880BD8E8
S2140004A0F4048004046DB59417000091003B01002D
S2140004B03A8809D81407400194028001807600002B
S2140004C00404C0DE34C83F01040008215400400183
S2140004D080CE0000F4048004046EB5943401000558
S2140004E004602AA51700C09416FE3F9D3A880900AE
S2140004F080570000061A000034C8BF040400809429
S2140005003400C0044400C09C3500C0944065000020
S214000510C05F0000F401000184530721C06F000093
S21400052004FCFFDE150300D8150200D8150100D81C
S214000530150000D83A880BD8F4048004046DB594EE
S21400054017000091003B01003A8809D814074001C3
S21400055094028001807600000404C0DE06000000DD
S214000560B478040104C0282134C87F010400482957
S214000570406B0000062E3F00F4040002046E354275
S2140005801500004034C83F0204100C42260D00013E
S21400059006000000340040028400404A3500404215
S2140005A0FA30130034008002041080523AB0924AA7
S2140005B0FA700148340040024400404A3A7001484C
S2140005C006070000FA30130034008002C4EFBF5262
S2140005D03A70924AFA700148350000400600000062
S2140005E03A2800F8260200283A2045210602000094
S2140005F03A880500060000003A2800F804FEFFDEF0
S214000600150000DC150140DC344002020400004204
S2140006103A8815003A88170014140003140F400394
S2140006202420005C3A8821543A88238225000088DA
S2140006304400805216FA3F533A8815004400C05AC8
S21400064016F77F5B170000DC170140DC0402C0DEF3
S2140006503A2800F804FDFFDE150000DC150140DC3A
S214000660150280DC34000202040000423A881500BD
S214000670D43BC00214500003A40000542400415C84
S2140006803A8861843A8825822D0000904400805282
S21400069016F93F533A881500C4FFFF5A0EF63F5826
S2140006A0170000DC170140DC170280DC0403C0DE04
S2140006B03A2800F804FFFFDE1500C0DF3A88112054
S2140006C03A8813283AD414403503804ACCFFBF42F8
S2140006D03502804A35000048140180023501804A00
S2140006E03700804A4C00805226FD3F5035000048B7
S2140006F01700C0DF0401C0DE3A2800F804FDFFDE64
S214000700150000DC150140DC150280DC3400020216
S214000710040000423A8813203A881500D43BC002F1
S214000720145000030F00404BA40000542400415C0A
S2140007303A8861843A8825822D0040938400404A96
S2140007404400805216F73F533A881500C4FFFF5AFC
S2140007500EF43F58170000DC170140DC170280DC5F
S2140007600403C0DE3A2800F804FAFFDE150000DCB9
S214000770150140DC150280DC1503C0DC150400DD25
S2140007801505C0DF3440020204000042D41F4002B8
S2140007903A882128242040340300C02426090098E3
S2140007A02606409A3A8865843A8829922500C0A48D
S2140007B0440000844400002106F73F003A882700E2
S2140007C006F83F00170000DC170140DC170280DC4B
S2140007D01703C0DC170400DD1705C0DF0406C0DE03
S2140007E03A2800F874FD0102C4FF154235010022C4
S2140007F074010002040015423700C0223AB0165AAF
S214000800260100280604000034004002C4FF7E4A89
S214000810D40280020604000034004002C4FF7B4A73
S21400082054038002060000003A70565A3500C02273
S2140008303700C0223AD8905A4C0000421EFC3F4077
S214000840FAD61058CC0380403A2800F804FCFFDEA5
S214000850150000DC150140DC150280DC1503C0DF46
S2140008603A8821003A8823003A8825003A882700EB
S21400087034C83F0204400042370040420C00A04A01
S21400088026FB3F50CC3F404A8419800226E2804A2D
S2140008908416800226F2804A441180022616804A78
S2140008A0840580022628804A84078002263A804AE9
S2140008B084098002264C804A44098002265E804ACB
S2140008C0840B80022670804A840D80022682804A2D
S2140008D0440F80022694804A840F800226A6804A0F
S2140008E08411800226B8804AC40380022600804A0B
S2140008F04400000406DE3F00260200803A882100FD
S21400090006DB3F00540200030ED93F8B4400408CA8
S21400091004FFFFDE04004002150040DA040C40022B
S21400092004FFFFDE050040DA450000D88D0000D841
S2140009303A8809D8840440895409800180760000EA
S2140009400401C0DE06CA3F00260200803A88210065
S21400095006C73F00540200030EC53F8B4400408C80
S21400096004FFFFDE44004002150040DA440C40025B
S21400097004FFFFDE050040DA450000D88D0000D8F1
S2140009803A8809D88404408954098001807600009A
S2140009900401C0DE06B63F00260200803A88210029
S2140009A006B33F00540200030EB13F8B4400408C58
S2140009B004FFFFDE84004002150040DA840C40028B
S2140009C004FFFFDE050040DA450000D88D0000D8A1
S2140009D03A8809D88404408954098001807600004A
S2140009E00401C0DE06A23F00260200803A882100ED
S2140009F0069F3F00540200030E9D3F8B4400408C30
S214000A0004FFFFDEC4004002150040DAC40C4002BA
S214000A1004FFFFDE050040DA450000D88D0000D850
S214000A203A8809D8840440895409800180760000F9
S214000A300401C0DE068E3F00260200803A882100B0
S214000A40068B3F00540200030E893F8B4400408C07
S214000A5004FFFFDE04014002150040DA040D4002E8
S214000A6004FFFFDE050040DA450000D88D0000D800
S214000A703A8809D8840440895409800180760000A9
S214000A800401C0DE067A3F00260200803A88210074
S214000A9006773F00540200030E753F8B4400408CDF
S214000AA004FFFFDE44014002150040DA440D400218
S214000AB004FFFFDE050040DA450000D88D0000D8B0
S214000AC03A8809D884044089540980018076000059
S214000AD00401C0DE06663F00260200803A88210038
S214000AE006633F00540200030E613F8B4400408CB7
S214000AF004FFFFDE84014002150040DA840D400248
S214000B0004FFFFDE050040DA450000D88D0000D85F
S214000B103A8809D884044089540980018076000008
S214000B200401C0DE06523F00260200803A882100FB
S214000B30064F3F00540200030E4D3F8B4400408C8E
S214000B4004FFFFDEC4014002150040DAC40D400277
S214000B5004FFFFDE050040DA450000D88D0000D80F
S214000B603A8809D8840440895409800180760000B8
S214000B700401C0DE063E3F00260200803A882100BF
S214000B80063B3F00540200030E393F8B4400408C66
S214000B9004FFFFDE04024002150040DA040E4002A5
S214000BA004FFFFDE050040DA450000D88D0000D8BF
S214000BB03A8809D884044089540980018076000068
S214000BC00401C0DE062A3F00260200803A88210083
S214000BD006273F00540200030E253F8B4400408C3E
S214000BE004FFFFDE44024002150040DA440E4002D5
S214000BF004FFFFDE050040DA450000D88D0000D86F
S214000C003A8809D884044089540980018076000017
S214000C100401C0DE06163F00260200803A88210046
S214000C2006133F000E127F04150000D80401C0DE34
S214000C30C41F400204FFFFDE050040DA450000D86E
S214000C408D0000D83A8809D8840440895409800168
S214000C50807600000401C0DEC4FF7F8C06043F00DF
S214000C6026033F8026023F88440080023A8805001B
S214000C700E074004170080DC3A38A5923A8885149F
S214000C80A4028052C4FF7F8C0401C0DE06F83F0039
S214000C90170000DC170140DC170280DC1703C0DFFA
S214000CA00404C0DE3A2800F83A8811003A88150095
S214000CB0F4044002046F754A3AD81622CC03C05A90
S214000CC03A88D34A0300C04AA40040423A98565A8B
S214000CD03AB0D452040100421403400216F47F4294
S214000CE03500802A3A2800F804F9FFDE1506C0DF32
S214000CF0150580DD150440DD150300DD150280DCDA
S214000D00150140DC150000DC3A882D2034C83F046D
S214000D100418008434004004C4FF7F8C74FD8104F2
S214000D20C4FF95943501808434008004C4FFBF94CA
S214000D3035008084260140010604000034000005CA
S214000D4004FF3FA51400400506040000340000051B
S214000D5084FF3FA5540040050600000035000085CE
S214000D60F4000001840E00213A880BB0406B0000AE
S214000D7035004084F4000001840E00213A880BB050
S214000D80406B00003A8809803A880BA8407E000035
S214000D90D403800426F1BF901706C0DF170580DD58
S214000DA0170440DD170300DD170280DC170140DC66
S214000DB0170000DC0407C0DE3A2800F8FA301500F9
S214000DC034004002C4FF7D4A3A705452FA70015013
S214000DD034C83F020418004274FD8102C4FF9552D5
S214000DE03501804234008002C4FFBF523503804282
S214000DF03502004034008002C4FFBF5235008042F6
S214000E003A2800F834C83F02041800429402400210
S214000E10FA95124874FD8102C4FF9552350180424E
S214000E203410BE02C4FFAF523AB05452350080426E
S214000E303420BE02C4FFBF523AB05452350080423E
S214000E40F40FBE02C4FFBF523AB05452350080427F
S214000E503420BE02C4FFBF523AB05452350080421E
S214000E603418BE02C4FFBF523500804234008002F0
S214000E70C4FFBF52350380423400980204008052FB
S214000E8035028042FA30150014008252FA70015082
S214000E9034008002440080523A7001503A2800F82C
S214000EA03A8811203A8813283AD414403503804AE9
S214000EB0CCFFBF423502804A35000048140180024C
S214000EC03501804A3A2800F83A8811203504004057
S214000ED037048042370540423A9412483AB0844A72
S214000EE03400C0020402C05A3501C042350000403A
S214000EF03A2800F82E180029161700280408800043
S214000F004400C00006020000261100101605002846
S214000F103A884B29C4FFBF103A88C71836FA3F29CB
S214000F20260B00183A880500360240213AC84921A7
S214000F303AB0C4107AD006187AD00A281EFA3F189B
S214000F401E0100303A2800F83A8805203A2800F8B2
S214000F503A88050006FA3F004400C00006F13F004C
S214000F6004FEFFDE1501C0DF150000DC160B0020B6
S214000F703A882100160C00283A880D0040EF000041
S214000F803AC807043AF084183A8805141701C0DFF7
S214000F90170000DC0402C0DE3A2800F83AC809014F
S214000FA0440000040EF43F283AC84B015C0000845D
S214000FB006F13F0004FDFFDE1502C0DF150140DC30
S214000FC0150000DC160C00203A8823003A88210021
S214000FD0160D00284400800140EF00003AF004148B
S214000FE03A8885881702C0DF170140DC170000DC4E
S214000FF00403C0DE3A2800F83AC809014400400459
S214001000C4FF3F040EF33F283AC84B0106F13F00E9
S2140010103A880D0041EF00004400800141EF0000D7
S2140010203A880500260700204C00C0207AD0082009
S214001030260100183A8845113A884B291EFA3F20A7
S2140010403A2800F83A2800F83A2800F8F404000194
S214001050F4048001047E3621047EB63104FFFFDEF0
S2140010603AC80D313A880B001500C0DFC0080100F1
S214001070800401003A8809003A880B003A880D007F
S214001080002300003A88091000090100810C0100C5
S21400109004FEFFDE3A880B00150000DC1501C0DFF9
S2140010A03A882120C01E0100F4048000047CB6109B
S2140010B017000011170F8020260100103AE83E1096
S2140010C03A88098040380100CC00C0203A880520C4
S2140010D026430018C4FFFF31264000303A88132804
S2140010E03A880D203A88072006040000C4FF3F3ADD
S2140010F044008031263900383A880F404400C01832
S21400110005004032CC00001A1EF83F40C400000123
S2140011102E2DC021CC3F80293A9208303AB08C213F
S2140011203A9408303AB08C21C40300012E18C0212E
S21400113004FC3F3B3AD118600401001A0402C01AAE
S2140011403A9108600403801A3A88131804050021AF
S2140011503A88091915008049150080411500805904
S21400116015008051040400420404404A0404C05A96
S214001170040480521EF73F41440000633A91186011
S214001180CC03C039C40000013A88071B2E0EC021CC
S2140011903A8813183A881138C400000115008049AF
S2140011A004FF3F420401404A36FC3F2204FF3F3919
S2140011B0BAD00820CC00C039440000213A88092162
S2140011C03A8809213A880719260400383A88CF1940
S2140011D0050040194400C0181EFDFF193A2800F803
S2140011E03A8807203A880F3006C83F00F40480008B
S2140011F0047CB6101700801004F4FFDE150880DDAE
S214001200150080D804528010150600DD150480DC19
S214001210150BC0DF150A00DF1509C0DD150740DD18
S2140012201505C0DC150340DC150200DC3A882520D5
S2140012303A882928150180D8C4FFBF05170080D832
S2140012401752C014261D0098170140DD170180981C
S214001250C4FF3F17160D00E0440000143A882184AE
S2140012603A882184042040843A88639C3A88219CEA
S214001270261E00A017408080261C0015C4FF3FE7EE
S21400128004FF3F8404FF7F8C1EF9BFE53400800016
S2140012900400801026090010170180981E310010E7
S2140012A017008098263400103A880998150080A800
S2140012B0000000001700C0AC1EE43F98170BC0DF0C
S2140012C0170A00DF1709C0DD170880DD170740DDA5
S2140012D0170600DD1705C0DC170480DC170340DCAA
S2140012E0170200DC040CC0DE3A2800F817018098CC
S2140012F01700C080C4FFBF10261500171500008019
S21400130026DE3F18440080003A9808171762809837
S2140013101701C09D3A7084201E0600103AE83E1859
S214001320170180981EC5FF15170080A826D3FF1446
S21400133006C23F00176380983A7084201E0600108D
S214001340170040893A8809903AE83E1806F43F00AC
S2140013501501009F06EA3F00170000893AE83E188C
S21400136006EF3F00170080983A882B983A88271097
S2140013701EB63F9806D13F003A88050006FA3F00A1
S2140013803A2800F804FEFFDE150000DC1501C0DF79
S2140013903A882120003801003A88058006FF3F0081
S2140013A01701C0DF170000DC0402C0DE3A2800F890
S2140013B004F9FFDE1506C0DF150540DD150400DD67
S2140013C01503C0DC150280DC150140DC150000DCCE
S2140013D03A882120262400203A8825283A882300A7
S2140013E0840200053A8809803A880BA000010100B3
S2140013F03A8827103A886B943A8809103A880BA0E6
S214001400000201003AC88580040C0014050000ACF8
S2140014104400408C1E050098FAD70A883A884B2C60
S2140014207AD00B2816044001060F00003A8821984F
S2140014301EEC3F8D440140013A880990C4FFFF88A6
S2140014403A88C5903AC863193A8863940300C02066
S21400145003004011050040210500C0104400002193
S214001460C4FFBF101EF97F141706C0DF170540DD46
S214001470170400DD1703C0DC170280DC170140DC10
S214001480170000DC0407C0DE3A2800F83A8805306A
S214001490260C00303A880F283A88912934C87F01F4
S2140014A004010429040044293700C020ECFFFF187B
S2140014B026FD3F180700C0383500C0284400C03954
S2140014C01EF93F3A3A2800F834C83F0104000421C8
S2140014D03700C0200C00A01826FD3F103AD405188F
S2140014E0440080102E0180303A8805300E088000B7
S2140014F03A8809283A888B2834C8BF01040084310A
S2140015000500C0203700C030440000211EFC7F21AB
S2080015103A2800F878
S208001514430000008B
S21400151800F80000E00700001F00000000000000C0
S21400152800000000000000000000000000000000AE
S214001538000000000000000000000000000000009E
S214001548000000000000000000000000000000008E
S214001558000000000000000000000000000000007E
S21400D608000000000000E007E007E007AE73F7BD83
S21400D618D7BDD7BDD7BDD7BDD7BDD7BDD7BDD7BD5D
S21400D628D7BDD7BDD7BDD7BDD7BDD7BDD7BDD7BD4D
S21400D638D7BDD7BDD7BDD7BDD7BDD7BDD7BDD7BD3D
S21400D648D7BDD7BDD7BDD7BDD7BDD7BDD7BDD7BD2D
S21400D658D7BDD7BDD7BDD7BDD7BDD7BDD7BDD7BD1D
S21400D668D7BDD7BDD7BDD7BDD7BDD7BDD7BDD7BD0D
S21400D678D7BDD7BDD7BDD7BDD7BDD7BDD7BDD7BDFD
S21400D688D7BDD7BDD7BDD7BDD7BDD7BDD7BDD7BDED
S21400D698D7BDD7BDD7BDD7BDD7BDD7BDD7BDD7BDDD
S21400D6A8D7BDD7BDD7BDD7BDD7BDD7BDD7BDD7BDCD
S21400D6B8D7BDD7BDD7BDD7BDD7BDD7BDD7BDD7BDBD
S21400D6C8D7BDD7BDD7BDD7BDD7BDD7BDD7BDD7BDAD
S21400D6D8D7BDD7BDD7BDD7BDD7BDD7BDD7BDD7BD9D
S21400D6E8D7BDD7BDD7BDD7BDD7BDD7BDD7BDD7BD8D
S21400D6F8D7BDD7BDD7BDD7BDD7BDD7BDD7BDD7BD7D
S21400D708D7BDD7BDD7BDD7BDD7BDD7BDD7BDD7BD6C
S21400D718D7BDD7BDD7BDD7BDD7BDD7BDD7BDD7BD5C
S21400D728D7BDD7BDD7BDD7BDD7BDD7BDD7BDD7BD4C
S21400D738D7BDD7BDD7BDD7BDD7BDD7BDD7BDD7BD3C
S21400D748D7BDD7BDD7BDD7BDD7BDD7BDD7BDD7BD2C
S21400D758D7BDD7BDD7BDD7BDD7BDD7BDD7BDD7BD1C
S21400D768D7BDD7BDD7BDD7BDD7BDD7BDD7BDD7BD0C
S21400D778D7BDD7BDD7BDD7BDD7BDD7BDD7BDD7BDFC
S21400D788D7BDD7BDD7BDD7BDD7BDD7BDD7BDD7BDEC
S21400D798D7BDD7BDD7BDD7BDD7BDD7BDD7BDD7BDDC
S21400D7A8D7BDD7BDD7BDD7BDD7BDD7BDD7BDD7BDCC
S21400D7B8D7BDD7BDD7BDF7BDAE7302E002E002E025
S21400D7C8000000000000000000000000000000004C
S21400D7D8000000000000000000000000000000003C
S21400D7E8000000000000000000000000000000002C
S21400D7F8000000000000000000000000000000001C
S21400D808000000000000000000000000000000000B
S21400D81800000000000000000000000000000000FB
S21400D82800000000000000000000000000000000EB
S21400D83800000000000000000000000000000000DB
S21400D84800000000000000000000000000000000CB
S21400D85800000000000000000000000000000000BB
S21400D86800000000000000000000000000000000AB
S21400D878000000000000000000000000000000009B
S21400D888000000000000E007E007E007F7BD000022
S21400D898000000000000000000000000000000007B
S21400D8A8000000000000000000000000000000006B
S21400D8B8000000000000000000000000000000005B
S21400D8C8000000000000000000000000000000004B
S21400D8D8000000000000000000000000000000003B
S21400D8E8000000000000000000000000000000002B
S21400D8F8000000000000000000000000000000001B
S21400D908000000000000000000000000000000000A
S21400D91800000000000000000000000000000000FA
S21400D92800000000000000000000000000000000EA
S21400D93800000000000000000000000000000000DA
S21400D94800000000000000000000000000000000CA
S21400D95800000000000000000000000000000000BA
S21400D96800000000000000000000000000000000AA
S21400D978000000000000000000000000000000009A
S21400D988000000000000000000000000000000008A
S21400D998000000000000000000000000000000007A
S21400D9A8000000000000000000000000000000006A
S21400D9B8000000000000000000000000000000005A
S21400D9C8000000000000000000000000000000004A
S21400D9D8000000000000000000000000000000003A
S21400D9E8000000000000000000000000000000002A
S21400D9F8000000000000000000000000000000001A
S21400DA080000000000000000000000000000000009
S21400DA1800000000000000000000000000000000F9
S21400DA2800000000000000000000000000000000E9
S21400DA380000000000000000F7BD02E002E002E07F
S21400DA4800000000000000000000000000000000C9
S21400DA5800000000000000000000000000000000B9
S21400DA6800000000000000000000000000000000A9
S21400DA780000000000000000000000000000000099
S21400DA880000000000000000000000000000000089
S21400DA980000000000000000000000000000000079
S21400DAA80000000000000000000000000000000069
S21400DAB80000000000000000000000000000000059
S21400DAC80000000000000000000000000000000049
S21400DAD80000000000000000000000000000000039
S21400DAE80000000000000000000000000000000029
S21400DAF80000000000000000000000000000000019
S21400DB08000000000000E007E007E00796B5000008
S21400DB1800000000000000000000000000000000F8
S21400DB2800000000000000000000000000000000E8
S21400DB3800000000000000000000000000000000D8
S21400DB4800000000000000000000000000000000C8
S21400DB5800000000000000000000000000000000B8
S21400DB6800000000000000000000000000000000A8
S21400DB780000000000000000000000000000000098
S21400DB880000000000000000000000000000000088
S21400DB980000000000000000000000000000000078
S21400DBA80000000000000000000000000000000068
S21400DBB80000000000000000000000000000000058
S21400DBC80000000000000000000000000000000048
S21400DBD80000000000000000000000000000000038
S21400DBE80000000000000000000000000000000028
S21400DBF80000000000000000000000000000000018
S21400DC080000000000000000000000000000000007
S21400DC1800000000000000000000000000000000F7
S21400DC2800000000000000000000000000000000E7
S21400DC3800000000000000000000000000000000D7
S21400DC4800000000000000000000000000000000C7
S21400DC5800000000000000000000000000000000B7
S21400DC6800000000000000000000000000000000A7
S21400DC780000000000000000000000000000000097
S21400DC880000000000000000000000000000000087
S21400DC980000000000000000000000000000000077
S21400DCA80000000000000000000000000000000067
S21400DCB8000000000000000096B502E002E002E066
S21400DCC80000000000000000000000000000000047
S21400DCD80000000000000000000000000000000037
S21400DCE80000000000000000000000000000000027
S21400DCF80000000000000000000000000000000017
S21400DD080000000000000000000000000000000006
S21400DD1800000000000000000000000000000000F6
S21400DD2800000000000000000000000000000000E6
S21400DD3800000000000000000000000000000000D6
S21400DD4800000000000000000000000000000000C6
S21400DD5800000000000000000000000000000000B6
S21400DD6800000000000000000000000000000000A6
S21400DD780000000000000000000000000000000096
S21400DD88000000000000E007E007E00796B5000086
S21400DD980000000000000000000000000000000076
S21400DDA80000000000000000000000000000000066
S21400DDB80000000000000000000000000000000056
S21400DDC80000000000000000000000000000000046
S21400DDD80000000000000000000000000000000036
S21400DDE80000000000000000000000000000000026
S21400DDF80000000000000000000000000000000016
S21400DE080000000000000000000000000000000005
S21400DE1800000000000000000000000000000000F5
S21400DE2800000000000000000000000000000000E5
S21400DE3800000000000000000000000000000000D5
S21400DE4800000000000000000000000000000000C5
S21400DE5800000000000000000000000000000000B5
S21400DE6800000000000000000000000000000000A5
S21400DE780000000000000000000000000000000095
S21400DE880000000000000000000000000000000085
S21400DE980000000000000000000000000000000075
S21400DEA80000000000000000000000000000000065
S21400DEB80000000000000000000000000000000055
S21400DEC80000000000000000000000000000000045
S21400DED80000000000000000000000000000000035
S21400DEE80000000000000000000000000000000025
S21400DEF80000000000000000000000000000000015
S21400DF080000000000000000000000000000000004
S21400DF1800000000000000000000000000000000F4
S21400DF2800000000000000000000000000000000E4
S21400DF38000000000000000096B502E002E002E0E3
S21400DF4800000000000000000000000000000000C4
S21400DF5800000000000000000000000000000000B4
S21400DF6800000000000000000000000000000000A4
S21400DF780000000000000000000000000000000094
S21400DF880000000000000000000000000000000084
S21400DF980000000000000000000000000000000074
S21400DFA80000000000000000000000000000000064
S21400DFB80000000000000000000000000000000054
S21400DFC80000000000000000000000000000000044
S21400DFD80000000000000000000000000000000034
S21400DFE80000000000000000000000000000000024
S21400DFF80000000000000000000000000000000014
S21400E008000000000000E007E007E00796B5000003
S21400E01800000000000000000000000000000000F3
S21400E02800000000000000000000000000000000E3
S21400E03800000000000000000000000000000000D3
S21400E04800000000000000000000000000000000C3
S21400E05800000000000000000000000000000000B3
S21400E06800000000000000000000000000000000A3
S21400E0780000000000000000000000000000000093
S21400E0880000000000000000000000000000000083
S21400E0980000000000000000000000000000000073
S21400E0A80000000000000000000000000000000063
S21400E0B80000000000000000000000000000000053
S21400E0C80000000000000000000000000000000043
S21400E0D80000000000000000000000000000000033
S21400E0E80000000000000000000000000000000023
S21400E0F80000000000000000000000000000000013
S21400E1080000000000000000000000000000000002
S21400E11800000000000000000000000000000000F2
S21400E12800000000000000000000000000000000E2
S21400E13800000000000000000000000000000000D2
S21400E14800000000000000000000000000000000C2
S21400E15800000000000000000000000000000000B2
S21400E16800000000000000000000000000000000A2
S21400E1780000000000000000000000000000000092
S21400E1880000000000000000000000000000000082
S21400E1980000000000000000000000000000000072
S21400E1A80000000000000000000000000000000062
S21400E1B8000000000000000096B502E002E002E061
S21400E1C80000000000000000000000000000000042
S21400E1D80000000000000000000000000000000032
S21400E1E80000000000000000000000000000000022
S21400E1F80000000000000000000000000000000012
S21400E2080000000000000000000000000000000001
S21400E21800000000000000000000000000000000F1
S21400E22800000000000000000000000000000000E1
S21400E23800000000000000000000000000000000D1
S21400E24800000000000000000000000000000000C1
S21400E25800000000000000000000000000000000B1
S21400E26800000000000000000000000000000000A1
S21400E2780000000000000000000000000000000091
S21400E288000000000000E007E007E00796B5000081
S21400E2980000000000000000000000000000000071
S21400E2A80000000000000000000000000000000061
S21400E2B80000000000000000000000000000000051
S21400E2C80000000000000000000000000000000041
S21400E2D80000000000000000000000000000000031
S21400E2E80000000000000000000000000000000021
S21400E2F80000000000000000000000000000000011
S21400E3080000000000000000000000000000000000
S21400E31800000000000000000000000000000000F0
S21400E32800000000000000000000000000000000E0
S21400E33800000000000000000000000000000000D0
S21400E34800000000000000000000000000000000C0
S21400E35800000000000000000000000000000000B0
S21400E36800000000000000000000000000000000A0
S21400E3780000000000000000000000000000000090
S21400E3880000000000000000000000000000000080
S21400E3980000000000000000000000000000000070
S21400E3A80000000000000000000000000000000060
S21400E3B80000000000000000000000000000000050
S21400E3C80000000000000000000000000000000040
S21400E3D80000000000000000000000000000000030
S21400E3E80000000000000000000000000000000020
S21400E3F80000000000000000000000000000000010
S21400E40800000000000000000000000000000000FF
S21400E41800000000000000000000000000000000EF
S21400E42800000000000000000000000000000000DF
S21400E438000000000000000096B502E002E002E0DE
S21400E44800000000000000000000000000000000BF
S21400E45800000000000000000000000000000000AF
S21400E468000000000000000000000000000000009F
S21400E478000000000000000000000000000000008F
S21400E488000000000000000000000000000000007F
S21400E498000000000000000000000000000000006F
S21400E4A8000000000000000000000000000000005F
S21400E4B8000000000000000000000000000000004F
S21400E4C8000000000000000000000000000000003F
S21400E4D8000000000000000000000000000000002F
S21400E4E8000000000000000000000000000000001F
S21400E4F8000000000000000000000000000000000F
S21400E508000000000000E007E007E00796B50000FE
S21400E51800000000000000000000000000000000EE
S21400E52800000000000000000000000000000000DE
S21400E53800000000000000000000000000000000CE
S21400E54800000000000000000000000000000000BE
S21400E55800000000000000000000000000000000AE
S21400E568000000000000000000000000000000009E
S21400E578000000000000000000000000000000008E
S21400E588000000000000000000000000000000007E
S21400E598000000000000000000000000000000006E
S21400E5A8000000000000000000000000000000005E
S21400E5B8000000000000000000000000000000004E
S21400E5C8000000000000000000000000000000003E
S21400E5D8000000000000000000000000000000002E
S21400E5E8000000000000000000000000000000001E
S21400E5F8000000000000000000000000000000000E
S21400E60800000000000000000000000000000000FD
S21400E61800000000000000000000000000000000ED
S21400E62800000000000000000000000000000000DD
S21400E63800000000000000000000000000000000CD
S21400E64800000000000000000000000000000000BD
S21400E65800000000000000000000000000000000AD
S21400E668000000000000000000000000000000009D
S21400E678000000000000000000000000000000008D
S21400E688000000000000000000000000000000007D
S21400E698000099CEEF7B000000000000000000009C
S21400E6A8000000000000000000000000000000005D
S21400E6B8000000000000000096B502E002E002E05C
S21400E6C8000000000000000000000000000000003D
S21400E6D8000000000000000000000000000000002D
S21400E6E8000000000000000000000000000000001D
S21400E6F8000000000000000000000000000000000D
S21400E70800000000000000000000000000000000FC
S21400E71800000000000000000000000000000000EC
S21400E72800000000000000000000000000000000DC
S21400E73800000000000000000000000000000000CC
S21400E74800000000000000000000000000000000BC
S21400E75800000000000000000000000000000000AC
S21400E768000000000000000000000000000000009C
S21400E778000000000000000000000000000000008C
S21400E788000000000000E007E007E00796B500007C
S21400E798000000000000000000000000000000006C
S21400E7A8000000000000000000000000000000005C
S21400E7B8000000000000000000000000000000004C
S21400E7C8000000000000000000000000000000003C
S21400E7D8000000000000000000000000000000002C
S21400E7E8000000000000000000000000000000001C
S21400E7F8000000000000000000000000000000000C
S21400E80800000000000000000000000000000000FB
S21400E81800000000000000000000000000000000EB
S21400E82800000000000000000000000000000000DB
S21400E83800000000000000000000000000000000CB
S21400E84800000000000000000000000000000000BB
S21400E85800000000000000000000000000000000AB
S21400E868000000000000000000000000000000009B
S21400E878000000000000000000000000000000008B
S21400E888000000000000000000000000000000007B
S21400E898000000000000000000000000000000006B
S21400E8A8000000000000000000000000000000005B
S21400E8B8000000000000000000000000000000004B
S21400E8C8000000000000000000000000000000003B
S21400E8D8000000000000000000000000000000002B
S21400E8E8000000000000000000000000000000001B
S21400E8F8000000000000000000000000000000000B
S21400E90800000000000000000000000000000000FA
S21400E9180000EF7B99CE0000000000000000000019
S21400E92800000000000000000000000000000000DA
S21400E938000000000000000096B502E002E002E0D9
S21400E94800000000000000000000000000000000BA
S21400E95800000000000000000000000000000000AA
S21400E968000000000000000000000000000000009A
S21400E978000000000000000000000000000000008A
S21400E988000000000000000000000000000000007A
S21400E998000000000000000000000000000000006A
S21400E9A8000000000000000000000000000000005A
S21400E9B8000000000000000000000000000000004A
S21400E9C8000000000000000000000000000000003A
S21400E9D8000000000000000000000000000000002A
S21400E9E8000000000000000000000000000000001A
S21400E9F8000000000000000000000000000000000A
S21400EA08000000000000E007E007E00796B50000F9
S21400EA1800000000000000000000000000000000E9
S21400EA2800000000000000000000000000000000D9
S21400EA3800000000000000000000000000000000C9
S21400EA4800000000000000000000000000000000B9
S21400EA5800000000000000000000000000000000A9
S21400EA680000000000000000000000000000000099
S21400EA780000000000000000000000000000000089
S21400EA880000000000000000000000000000000079
S21400EA980000000000000000000000000000000069
S21400EAA80000000000000000000000000000000059
S21400EAB80000000000000000000000000000000049
S21400EAC80000000000000000000000000000000039
S21400EAD80000000000000000000000000000000029
S21400EAE80000000000000000000000000000000019
S21400EAF80000000000000000000000000000000009
S21400EB0800000000000000000000000000000000F8
S21400EB1800000000000000000000000000000000E8
S21400EB2800000000000000000000000000000000D8
S21400EB3800000000000000000000000000000000C8
S21400EB4800000000000000000000000000000000B8
S21400EB5800000000000000000000000000000000A8
S21400EB680000000000000000000000000000CB5A73
S21400EB784D6B084200000000000000000000000086
S21400EB880000000000000000000000000000000078
S21400EB98000000005CE708420000000000000000DB
S21400EBA80000000025294D6B4D6B2529000000004C
S21400EBB8000000000000000096B502E002E002E057
S21400EBC80000000000000000000000000000000038
S21400EBD80000000000000000000000000000000028
S21400EBE80000000000000000000000000000000018
S21400EBF80000000000000000000000000000000008
S21400EC0800000000000000000000000000000000F7
S21400EC1800000000000000000000000000000000E7
S21400EC2800000000000000000000000000000000D7
S21400EC3800000000000000000000000000000000C7
S21400EC4800000000000000000000000000000000B7
S21400EC5800000000000000000000000000000000A7
S21400EC680000000000000000000000000000000097
S21400EC780000000000000000000000000000000087
S21400EC88000000000000E007E007E00796B5000077
S21400EC980000000000000000000000000000000067
S21400ECA80000000000000000000000000000000057
S21400ECB80000000000000000000000000000000047
S21400ECC80000000000000000000000000000000037
S21400ECD80000000000000000000000000000000027
S21400ECE80000000000000000000000000000000017
S21400ECF80000000000000000000000000000000007
S21400ED0800000000000000000000000000000000F6
S21400ED1800000000000000000000000000000000E6
S21400ED2800000000000000000000000000000000D6
S21400ED3800000000000000000000000000000000C6
S21400ED4800000000000000000000000000000000B6
S21400ED5800000000000000000000000000000000A6
S21400ED680000000000000000000000000000000096
S21400ED780000000000000000000000000000000086
S21400ED880000000000000000000000000000000076
S21400ED980000000000000000000000000000000066
S21400EDA80000000000000000000000000000000056
S21400EDB80000000000000000000000000000000046
S21400EDC80000000000000000000000000000000036
S21400EDD80000000000000000000000000000000026
S21400EDE800000000000000000000CB5A5CE75CE76B
S21400EDF8F39C55AD718C4D6B38C6FFFF38C6718CC9
S21400EE0855ADFFFFFBDE718C000099CE9EF7F39C94
S21400EE1800000000F39C55AD000000000000000054
S21400EE28000008429EF7718C4D6B99CE718C0000DD
S21400EE38000000000000000096B502E002E002E0D4
S21400EE4800000000000000000000000000000000B5
S21400EE5800000000000000000000000000000000A5
S21400EE680000000000000000000000000000000095
S21400EE780000000000000000000000000000000085
S21400EE880000000000000000000000000000000075
S21400EE980000000000000000000000000000000065
S21400EEA80000000000000000000000000000000055
S21400EEB80000000000000000000000000000000045
S21400EEC80000000000000000000000000000000035
S21400EED80000000000000000000000000000000025
S21400EEE80000000000000000000000000000000015
S21400EEF80000000000000000000000000000000005
S21400EF08000000000000E007E007E00796B50000F4
S21400EF1800000000000000000000000000000000E4
S21400EF2800000000000000000000000000000000D4
S21400EF3800000000000000000000000000000000C4
S21400EF4800000000000000000000000000000000B4
S21400EF5800000000000000000000000000000000A4
S21400EF680000000000000000000000000000000094
S21400EF780000000000000000000000000000000084
S21400EF880000000000000000000000000000000074
S21400EF980000000000000000000000000000000064
S21400EFA80000000000000000000000000000000054
S21400EFB80000000000000000000000000000000044
S21400EFC80000000000000000000000000000000034
S21400EFD80000000000000000000000000000000024
S21400EFE80000000000000000000000000000000014
S21400EFF80000000000000000000000000000000004
S21400F00800000000000000000000000000000000F3
S21400F01800000000000000000000000000000000E3
S21400F02800000000000000000000000000000000D3
S21400F03800000000000000000000000000000000C3
S21400F04800000000000000000000000000000000B3
S21400F05800000000000000000000000000000000A3
S21400F068000000000000000000005CE75CE72529BF
S21400F07800000000000000004D6BFFFF4D6B000015
S21400F0880000FFFFF39C0000000099CE99CE000018
S21400F0980000000025299EF7252900000000000032
S21400F0A800000000F39C000000004D6BFFFF0842C4
S21400F0B8000000000000000096B502E002E002E052
S21400F0C80000000000000000000000000000000033
S21400F0D80000000000000000000000000000000023
S21400F0E80000000000000000000000000000000013
S21400F0F80000000000000000000000000000000003
S21400F10800000000000000000000000000000000F2
S21400F11800000000000000000000000000000000E2
S21400F12800000000000000000000000000000000D2
S21400F13800000000000000000000000000000000C2
S21400F14800000000000000000000000000000000B2
S21400F15800000000000000000000000000000000A2
S21400F1680000000000000000000000000000000092
S21400F1780000000000000000000000000000000082
S21400F188000000000000E007E007E00796B5000072
S21400F1980000000000000000000000000000000062
S21400F1A80000000000000000000000000000000052
S21400F1B80000000000000000000000000000000042
S21400F1C80000000000000000000000000000000032
S21400F1D80000000000000000000000000000000022
S21400F1E80000000000000000000000000000000012
S21400F1F80000000000000000000000000000000002
S21400F20800000000000000000000000000000000F1
S21400F21800000000000000000000000000000000E1
S21400F22800000000000000000000000000000000D1
S21400F23800000000000000000000000000000000C1
S21400F24800000000000000000000000000000000B1
S21400F25800000000000000000000000000000000A1
S21400F2680000000000000000000000000000000091
S21400F2780000000000000000000000000000000081
S21400F2880000000000000000000000000000000071
S21400F2980000000000000000000000000000000061
S21400F2A80000000000000000000000000000000051
S21400F2B80000000000000000000000000000000041
S21400F2C80000000000000000000000000000000031
S21400F2D80000000000000000000000000000000021
S21400F2E80000000000000000CB5AFFFFF39C00005F
S21400F2F800000000000000004D6BFFFF4D6B000093
S21400F3080000FFFFF39C0000000099CE99CE000095
S21400F318000000000000B6B5718C00000000000078
S21400F32800000000084200002529B6B5FFFF4D6B17
S21400F338000000000000000096B502E002E002E0CF
S21400F34800000000000000000000000000000000B0
S21400F35800000000000000000000000000000000A0
S21400F3680000000000000000000000000000000090
S21400F3780000000000000000000000000000000080
S21400F3880000000000000000000000000000000070
S21400F3980000000000000000000000000000000060
S21400F3A80000000000000000000000000000000050
S21400F3B80000000000000000000000000000000040
S21400F3C80000000000000000000000000000000030
S21400F3D80000000000000000000000000000000020
S21400F3E80000000000000000000000000000000010
S21400F3F80000000000000000000000000000000000
S21400F408000000000000E007E007E00796B50000EF
S21400F41800000000000000000000000000000000DF
S21400F42800000000000000000000000000000000CF
S21400F43800000000000000000000000000000000BF
S21400F44800000000000000000000000000000000AF
S21400F458000000000000000000000000000000009F
S21400F468000000000000000000000000000000008F
S21400F478000000000000000000000000000000007F
S21400F488000000000000000000000000000000006F
S21400F498000000000000000000000000000000005F
S21400F4A8000000000000000000000000000000004F
S21400F4B8000000000000000000000000000000003F
S21400F4C8000000000000000000000000000000002F
S21400F4D8000000000000000000000000000000001F
S21400F4E8000000000000000000000000000000000F
S21400F4F800000000000000000000000000000000FF
S21400F50800000000000000000000000000000000EE
S21400F51800000000000000000000000000000000DE
S21400F52800000000000000000000000000000000CE
S21400F53800000000000000000000000000000000BE
S21400F54800000000000000000000000000000000AE
S21400F558000000000000000000000000000000009E
S21400F56800000000000000004D6BFFFF4D6B000020
S21400F57800000000000000004D6BFFFF4D6B000010
S21400F5880000FFFFF39C0000000099CE99CE000013
S21400F5980000000000004D6BFBDE000000000000CD
S21400F5A800000000EF7BFBDEFFFFFFFF99CE0000A8
S21400F5B8000000000000000096B502E002E002E04D
S21400F5C8000000000000000000000000000000002E
S21400F5D8000000000000000000000000000000001E
S21400F5E8000000000000000000000000000000000E
S21400F5F800000000000000000000000000000000FE
S21400F60800000000000000000000000000000000ED
S21400F61800000000000000000000000000000000DD
S21400F62800000000000000000000000000000000CD
S21400F63800000000000000000000000000000000BD
S21400F64800000000000000000000000000000000AD
S21400F658000000000000000000000000000000009D
S21400F668000000000000000000000000000000008D
S21400F678000000000000000000000000000000007D
S21400F688000000000000E007E007E00796B500006D
S21400F698000000000000000000000000000000005D
S21400F6A8000000000000000000000000000000004D
S21400F6B8000000000000000000000000000000003D
S21400F6C8000000000000000000000000000000002D
S21400F6D8000000000000000000000000000000001D
S21400F6E8000000000000000000000000000000000D
S21400F6F800000000000000000000000000000000FD
S21400F70800000000000000000000000000000000EC
S21400F71800000000000000000000000000000000DC
S21400F72800000000000000000000000000000000CC
S21400F73800000000000000000000000000000000BC
S21400F74800000000000000000000000000000000AC
S21400F758000000000000000000000000000000009C
S21400F768000000000000000000000000000000008C
S21400F778000000000000000000000000000000007C
S21400F788000000000000000000000000000000006C
S21400F798000000000000000000000000000000005C
S21400F7A8000000000000000000000000000000004C
S21400F7B8000000000000000000000000000000003C
S21400F7C8000000000000000000000000000000002C
S21400F7D8000000000000000000000000000000001C
S21400F7E800000000000000000842FFFF4D6B00000C
S21400F7F800000000000000004D6BFFFF4D6B00008E
S21400F8080000FFFFF39C0000000099CE99CE000090
S21400F8180000000000000000FBDE4D6B000000004A
S21400F828000000009EF79EF7718C0842000000005A
S21400F838000000000000000096B502E002E002E0CA
S21400F84800000000000000000000000000000000AB
S21400F858000000000000000000000000000000009B
S21400F868000000000000000000000000000000008B
S21400F878000000000000000000000000000000007B
S21400F888000000000000000000000000000000006B
S21400F898000000000000000000000000000000005B
S21400F8A8000000000000000000000000000000004B
S21400F8B8000000000000000000000000000000003B
S21400F8C8000000000000000000000000000000002B
S21400F8D8000000000000000000000000000000001B
S21400F8E8000000000000000000000000000000000B
S21400F8F800000000000000000000000000000000FB
S21400F908000000000000E007E007E00796B50000EA
S21400F91800000000000000000000000000000000DA
S21400F92800000000000000000000000000000000CA
S21400F93800000000000000000000000000000000BA
S21400F94800000000000000000000000000000000AA
S21400F958000000000000000000000000000000009A
S21400F968000000000000000000000000000000008A
S21400F978000000000000000000000000000000007A
S21400F988000000000000000000000000000000006A
S21400F998000000000000000000000000000000005A
S21400F9A8000000000000000000000000000000004A
S21400F9B8000000000000000000000000000000003A
S21400F9C8000000000000000000000000000000002A
S21400F9D8000000000000000000000000000000001A
S21400F9E8000000000000000000000000000000000A
S21400F9F800000000000000000000000000000000FA
S21400FA0800000000000000000000000000000000E9
S21400FA1800000000000000000000000000000000D9
S21400FA2800000000000000000000000000000000C9
S21400FA3800000000000000000000000000000000B9
S21400FA4800000000000000000000000000000000A9
S21400FA580000000000000000000000000000000099
S21400FA6800000000000000000000B6B555AD00001C
S21400FA7800000000F39C00004D6BFFFFF39C0000A5
S21400FA884D6BFFFF99CE000025299EF738C600006B
S21400FA980000000000000000718CB6B500000000F1
S21400FAA8000000009EF7F39C00000000718C000028
S21400FAB8000000000000000096B502E002E002E048
S21400FAC80000000000000000000000000000000029
S21400FAD80000000000000000000000000000000019
S21400FAE80000000000000000000000000000000009
S21400FAF800000000000000000000000000000000F9
S21400FB0800000000000000000000000000000000E8
S21400FB1800000000000000000000000000000000D8
S21400FB2800000000000000000000000000000000C8
S21400FB3800000000000000000000000000000000B8
S21400FB4800000000000000000000000000000000A8
S21400FB580000000000000000000000000000000098
S21400FB680000000000000000000000000000000088
S21400FB780000000000000000000000000000000078
S21400FB88000000000000E007E007E00796B5000068
S21400FB980000000000000000000000000000000058
S21400FBA80000000000000000000000000000000048
S21400FBB80000000000000000000000000000000038
S21400FBC80000000000000000000000000000000028
S21400FBD80000000000000000000000000000000018
S21400FBE80000000000000000000000000000000008
S21400FBF800000000000000000000000000000000F8
S21400FC0800000000000000000000000000000000E7
S21400FC1800000000000000000000000000000000D7
S21400FC2800000000000000000000000000000000C7
S21400FC3800000000000000000000000000000000B7
S21400FC4800000000000000000000000000000000A7
S21400FC580000000000000000000000000000000097
S21400FC680000000000000000000000000000000087
S21400FC780000000000000000000000000000000077
S21400FC880000000000000000000000000000000067
S21400FC980000000000000000000000000000000057
S21400FCA80000000000000000000000000000000047
S21400FCB80000000000000000000000000000000037
S21400FCC80000000000000000000000000000000027
S21400FCD80000000000000000000000000000000017
S21400FCE8000000000000000000000000F39C55AD76
S21400FCF8F39CFBDE38C64D6B38C6FFFFF39C99CEE7
S21400FD089EF79EF7CB5AB6B55CE7FFFF4D6B000033
S21400FD18000000000000000025299EF725290000A5
S21400FD2800000000718C5CE7EF7BF39C99CE000026
S21400FD38000000000000000096B502E002E002E0C5
S21400FD4800000000000000000000000000000000A6
S21400FD580000000000000000000000000000000096
S21400FD680000000000000000000000000000000086
S21400FD780000000000000000000000000000000076
S21400FD880000000000000000000000000000000066
S21400FD980000000000000000000000000000000056
S21400FDA80000000000000000000000000000000046
S21400FDB80000000000000000000000000000000036
S21400FDC80000000000000000000000000000000026
S21400FDD80000000000000000000000000000000016
S21400FDE80000000000000000000000000000000006
S21400FDF800000000000000000000000000000000F6
S21400FE08000000000000E007E007E00796B50000E5
S21400FE1800000000000000000000000000000000D5
S21400FE2800000000000000000000000000000000C5
S21400FE3800000000000000000000000000000000B5
S21400FE4800000000000000000000000000000000A5
S21400FE580000000000000000000000000000000095
S21400FE680000000000000000000000000000000085
S21400FE780000000000000000000000000000000075
S21400FE880000000000000000000000000000000065
S21400FE980000000000000000000000000000000055
S21400FEA80000000000000000000000000000000045
S21400FEB80000000000000000000000000000000035
S21400FEC80000000000000000000000000000000025
S21400FED80000000000000000000000000000000015
S21400FEE80000000000000000000000000000000005
S21400FEF800000000000000000000000000000000F5
S21400FF0800000000000000000000000000000000E4
S21400FF1800000000000000000000000000000000D4
S21400FF2800000000000000000000000000000000C4
S21400FF3800000000000000000000000000000000B4
S21400FF4800000000000000000000000000000000A4
S21400FF580000000000000000000000000000000094
S21400FF680000000000000000000000000000000084
S21400FF784D6B4D6B0000000000002529252925291A
S21400FF884D6B2529000000004D6B0842000000005C
S21400FF980000000000000000000055ADF39C0000C3
S21400FFA800000000000025294D6BCB5A0000000019
S21400FFB8000000000000000096B502E002E002E043
S21400FFC80000000000000000000000000000000024
S21400FFD80000000000000000000000000000000014
S21400FFE80000000000000000000000000000000004
S21400FFF800000000000000000000000000000000F4
S21401000800000000000000000000000000000000E2
S21401001800000000000000000000000000000000D2
S21401002800000000000000000000000000000000C2
S21401003800000000000000000000000000000000B2
S21401004800000000000000000000000000000000A2
S2140100580000000000000000000000000000000092
S2140100680000000000000000000000000000000082
S2140100780000000000000000000000000000000072
S214010088000000000000E007E007E00796B5000062
S2140100980000000000000000000000000000000052
S2140100A80000000000000000000000000000000042
S2140100B80000000000000000000000000000000032
S2140100C80000000000000000000000000000000022
S2140100D80000000000000000000000000000000012
S2140100E80000000000000000000000000000000002
S2140100F800000000000000000000000000000000F2
S21401010800000000000000000000000000000000E1
S21401011800000000000000000000000000000000D1
S21401012800000000000000000000000000000000C1
S21401013800000000000000000000000000000000B1
S21401014800000000000000000000000000000000A1
S2140101580000000000000000000000000000000091
S2140101680000000000000000000000000000000081
S2140101780000000000000000000000000000000071
S2140101880000000000000000000000000000000061
S2140101980000000000000000000000000000000051
S2140101A80000000000000000000000000000000041
S2140101B80000000000000000000000000000000031
S2140101C80000000000000000000000000000000021
S2140101D80000000000000000000000000000000011
S2140101E80000000000000000000000000000000001
S2140101F800000000000000000000000000000000F1
S21401020800000000000000000000000000000000E0
S2140102180000000000000000000008425CE7000043
S21401022800000000000000000000000000000000C0
S214010238000000000000000096B502E002E002E0BF
S21401024800000000000000000000000000000000A0
S2140102580000000000000000000000000000000090
S2140102680000000000000000000000000000000080
S2140102780000000000000000000000000000000070
S2140102880000000000000000000000000000000060
S2140102980000000000000000000000000000000050
S2140102A80000000000000000000000000000000040
S2140102B80000000000000000000000000000000030
S2140102C80000000000000000000000000000000020
S2140102D80000000000000000000000000000000010
S2140102E80000000000000000000000000000000000
S2140102F800000000000000000000000000000000F0
S214010308000000000000E007E007E00796B50000DF
S21401031800000000000000000000000000000000CF
S21401032800000000000000000000000000000000BF
S21401033800000000000000000000000000000000AF
S214010348000000000000000000000000000000009F
S214010358000000000000000000000000000000008F
S214010368000000000000000000000000000000007F
S214010378000000000000000000000000000000006F
S214010388000000000000000000000000000000005F
S214010398000000000000000000000000000000004F
S2140103A8000000000000000000000000000000003F
S2140103B8000000000000000000000000000000002F
S2140103C8000000000000000000000000000000001F
S2140103D8000000000000000000000000000000000F
S2140103E800000000000000000000000000000000FF
S2140103F800000000000000000000000000000000EF
S21401040800000000000000000000000000000000DE
S21401041800000000000000000000000000000000CE
S21401042800000000000000000000000000000000BE
S21401043800000000000000000000000000000000AE
S214010448000000000000000000000000000000009E
S214010458000000000000000000000000000000008E
S214010468000000000000000000000000000000007E
S214010478000000000000000000000000000000006E
S214010488000000000000000000000000000000005E
S21401049800000000000000000000000099CE718CEA
S2140104A8000000000000000000000000000000003E
S2140104B8000000000000000096B502E002E002E03D
S2140104C8000000000000000000000000000000001E
S2140104D8000000000000000000000000000000000E
S2140104E800000000000000000000000000000000FE
S2140104F800000000000000000000000000000000EE
S21401050800000000000000000000000000000000DD
S21401051800000000000000000000000000000000CD
S21401052800000000000000000000000000000000BD
S21401053800000000000000000000000000000000AD
S214010548000000000000000000000000000000009D
S214010558000000000000000000000000000000008D
S214010568000000000000000000000000000000007D
S214010578000000000000000000000000000000006D
S214010588000000000000E007E007E00796B500005D
S214010598000000000000000000000000000000004D
S2140105A8000000000000000000000000000000003D
S2140105B8000000000000000000000000000000002D
S2140105C8000000000000000000000000000000001D
S2140105D8000000000000000000000000000000000D
S2140105E800000000000000000000000000000000FD
S2140105F800000000000000000000000000000000ED
S21401060800000000000000000000000000000000DC
S21401061800000000000000000000000000000000CC
S21401062800000000000000000000000000000000BC
S21401063800000000000000000000000000000000AC
S214010648000000000000000000000000000000009C
S214010658000000000000000000000000000000008C
S214010668000000000000000000000000000000007C
S214010678000000000000000000000000000000006C
S214010688000000000000000000000000000000005C
S214010698000000000000000000000000000000004C
S2140106A8000000000000000000000000000000003C
S2140106B8000000000000000000000000000000002C
S2140106C8000000000000000000000000000000001C
S2140106D8000000000000000000000000000000000C
S2140106E800000000000000000000000000000000FC
S2140106F800000000000000000000000000000000EC
S21401070800000000000000000000000000000000DB
S214010718000000000000000000000000EF7B99CEFA
S21401072800000000000000000000000000000000BB
S214010738000000000000000096B502E002E002E0BA
S214010748000000000000000000000000000000009B
S214010758000000000000000000000000000000008B
S214010768000000000000000000000000000000007B
S214010778000000000000000000000000000000006B
S214010788000000000000000000000000000000005B
S214010798000000000000000000000000000000004B
S2140107A8000000000000000000000000000000003B
S2140107B8000000000000000000000000000000002B
S2140107C8000000000000000000000000000000001B
S2140107D8000000000000000000000000000000000B
S2140107E800000000000000000000000000000000FB
S2140107F800000000000000000000000000000000EB
S214010808000000000000E007E007E00796B50000DA
S21401081800000000000000000000000000000000CA
S21401082800000000000000000000000000000000BA
S21401083800000000000000000000000000000000AA
S214010848000000000000000000000000000000009A
S214010858000000000000000000000000000000008A
S214010868000000000000000000000000000000007A
S214010878000000000000000000000000000000006A
S214010888000000000000000000000000000000005A
S214010898000000000000000000000000000000004A
S2140108A8000000000000000000000000000000003A
S2140108B8000000000000000000000000000000002A
S2140108C8000000000000000000000000000000001A
S2140108D8000000000000000000000000000000000A
S2140108E800000000000000000000000000000000FA
S2140108F800000000000000000000000000000000EA
S21401090800000000000000000000000000000000D9
S21401091800000000000000000000000000000000C9
S21401092800000000000000000000000000000000B9
S21401093800000000000000000000000000000000A9
S2140109480000000000000000000000000000000099
S2140109580000000000000000000000000000000089
S2140109680000000000000000000000000000000079
S2140109780000000000000000000000000000000069
S2140109880000000000000000000000000000000059
S2140109980000000000000000000000000000000049
S2140109A80000000000000000000000000000000039
S2140109B8000000000000000096B502E002E002E038
S2140109C80000000000000000000000000000000019
S2140109D80000000000000000000000000000000009
S2140109E800000000000000000000000000000000F9
S2140109F800000000000000000000000000000000E9
S214010A0800000000000000000000000000000000D8
S214010A1800000000000000000000000000000000C8
S214010A2800000000000000000000000000000000B8
S214010A3800000000000000000000000000000000A8
S214010A480000000000000000000000000000000098
S214010A580000000000000000000000000000000088
S214010A680000000000000000000000000000000078
S214010A780000000000000000000000000000000068
S214010A88000000000000E007E007E00796B5000058
S214010A980000000000000000000000000000000048
S214010AA80000000000000000000000000000000038
S214010AB80000000000000000000000000000000028
S214010AC80000000000000000000000000000000018
S214010AD80000000000000000000000000000000008
S214010AE800000000000000000000000000000000F8
S214010AF800000000000000000000000000000000E8
S214010B0800000000000000000000000000000000D7
S214010B1800000000000000000000000000000000C7
S214010B2800000000000000000000000000000000B7
S214010B3800000000000000000000000000000000A7
S214010B480000000000000000000000000000000097
S214010B580000000000000000000000000000000087
S214010B680000000000000000000000000000000077
S214010B780000000000000000000000000000000067
S214010B880000000000000000000000000000000057
S214010B980000000000000000000000000000000047
S214010BA80000000000000000000000000000000037
S214010BB80000000000000000000000000000000027
S214010BC80000000000000000000000000000000017
S214010BD80000000000000000000000000000000007
S214010BE800000000000000000000000000000000F7
S214010BF800000000000000000000000000000000E7
S214010C0800000000000000000000000000000000D6
S214010C1800000000000000000000000000000000C6
S214010C2800000000000000000000000000000000B6
S214010C38000000000000000096B502E002E002E0B5
S214010C480000000000000000000000000000000096
S214010C580000000000000000000000000000000086
S214010C680000000000000000000000000000000076
S214010C780000000000000000000000000000000066
S214010C880000000000000000000000000000000056
S214010C980000000000000000000000000000000046
S214010CA80000000000000000000000000000000036
S214010CB80000000000000000000000000000000026
S214010CC80000000000000000000000000000000016
S214010CD80000000000000000000000000000000006
S214010CE800000000000000000000000000000000F6
S214010CF800000000000000000000000000000000E6
S214010D08000000000000E007E007E00796B50000D5
S214010D1800000000000000000000000000000000C5
S214010D2800000000000000000000000000000000B5
S214010D3800000000000000000000000000000000A5
S214010D480000000000000000000000000000000095
S214010D580000000000000000000000000000000085
S214010D680000000000000000000000000000000075
S214010D780000000000000000000000000000000065
S214010D880000000000000000000000000000000055
S214010D980000000000000000000000000000000045
S214010DA80000000000000000000000000000000035
S214010DB80000000000000000000000000000000025
S214010DC80000000000000000000000000000000015
S214010DD80000000000000000000000000000000005
S214010DE800000000000000000000000000000000F5
S214010DF800000000000000000000000000000000E5
S214010E0800000000000000000000000000000000D4
S214010E1800000000000000000000000000000000C4
S214010E2800000000000000000000000000000000B4
S214010E3800000000000000000000000000000000A4
S214010E480000000000000000000000000000000094
S214010E580000000000000000000000000000000084
S214010E680000000000000000000000000000000074
S214010E780000000000000000000000000000000064
S214010E880000000000000000000000000000000054
S214010E980000000000000000000000000000000044
S214010EA80000000000000000000000000000000034
S214010EB8000000000000000096B502E002E002E033
S214010EC80000000000000000000000000000000014
S214010ED80000000000000000000000000000000004
S214010EE800000000000000000000000000000000F4
S214010EF800000000000000000000000000000000E4
S214010F0800000000000000000000000000000000D3
S214010F1800000000000000000000000000000000C3
S214010F2800000000000000000000000000000000B3
S214010F3800000000000000000000000000000000A3
S214010F480000000000000000000000000000000093
S214010F580000000000000000000000000000000083
S214010F680000000000000000000000000000000073
S214010F780000000000000000000000000000000063
S214010F88000000000000E007E007E00796B5000053
S214010F980000000000000000000000000000000043
S214010FA80000000000000000000000000000000033
S214010FB80000000000000000000000000000000023
S214010FC80000000000000000000000000000000013
S214010FD80000000000000000000000000000000003
S214010FE800000000000000000000000000000000F3
S214010FF800000000000000000000000000000000E3
S21401100800000000000000000000000000000000D2
S21401101800000000000000000000000000000000C2
S21401102800000000000000000000000000000000B2
S21401103800000000000000000000000000000000A2
S2140110480000000000000000000000000000000092
S2140110580000000000000000000000000000000082
S2140110680000000000000000000000000000000072
S2140110780000000000000000000000000000000062
S2140110880000000000000000000000000000000052
S2140110980000000000000000000000000000000042
S2140110A80000000000000000000000000000000032
S2140110B80000000000000000000000000000000022
S2140110C80000000000000000000000000000000012
S2140110D80000000000000000000000000000000002
S2140110E800000000000000000000000000000000F2
S2140110F800000000000000000000000000000000E2
S21401110800000000000000000000000000000000D1
S21401111800000000000000000000000000000000C1
S21401112800000000000000000000000000000000B1
S214011138000000000000000096B502E002E002E0B0
S2140111480000000000000000000000000000000091
S2140111580000000000000000000000000000000081
S2140111680000000000000000000000000000000071
S2140111780000000000000000000000000000000061
S2140111880000000000000000000000000000000051
S2140111980000000000000000000000000000000041
S2140111A80000000000000000000000000000000031
S2140111B80000000000000000000000000000000021
S2140111C80000000000000000000000000000000011
S2140111D80000000000000000000000000000000001
S2140111E800000000000000000000000000000000F1
S2140111F800000000000000000000000000000000E1
S214011208000000000000E007E007E007F7BD000067
S21401121800000000000000000000000000000000C0
S21401122800000000000000000000000000000000B0
S21401123800000000000000000000000000000000A0
S2140112480000000000000000000000000000000090
S2140112580000000000000000000000000000000080
S2140112680000000000000000000000000000000070
S2140112780000000000000000000000000000000060
S2140112880000000000000000000000000000000050
S2140112980000000000000000000000000000000040
S2140112A80000000000000000000000000000000030
S2140112B80000000000000000000000000000000020
S2140112C80000000000000000000000000000000010
S2140112D80000000000000000000000000000000000
S2140112E800000000000000000000000000000000F0
S2140112F800000000000000000000000000000000E0
S21401130800000000000000000000000000000000CF
S21401131800000000000000000000000000000000BF
S21401132800000000000000000000000000000000AF
S214011338000000000000000000000000000000009F
S214011348000000000000000000000000000000008F
S214011358000000000000000000000000000000007F
S214011368000000000000000000000000000000006F
S214011378000000000000000000000000000000005F
S214011388000000000000000000000000000000004F
S214011398000000000000000000000000000000003F
S2140113A8000000000000000000000000000000002F
S2140113B80000000000000000D7BD02E002E002E0E5
S2140113C8000000000000000000000000000000000F
S2140113D800000000000000000000000000000000FF
S2140113E800000000000000000000000000000000EF
S2140113F800000000000000000000000000000000DF
S21401140800000000000000000000000000000000CE
S21401141800000000000000000000000000000000BE
S21401142800000000000000000000000000000000AE
S214011438000000000000000000000000000000009E
S214011448000000000000000000000000000000008E
S214011458000000000000000000000000000000007E
S214011468000000000000000000000000000000006E
S214011478000000000000000000000000000000005E
S214011488000000000000E007E007E007AE73F7BDC4
S214011498D7BDD7BDD7BDD7BDD7BDD7BDD7BDD7BD9E
S2140114A8D7BDD7BDD7BDD7BDD7BDD7BDD7BDD7BD8E
S2140114B8D7BDD7BDD7BDD7BDD7BDD7BDD7BDD7BD7E
S2140114C8D7BDD7BDD7BDD7BDD7BDD7BDD7BDD7BD6E
S2140114D8D7BDD7BDD7BDD7BDD7BDD7BDD7BDD7BD5E
S2140114E8D7BDD7BDD7BDD7BDD7BDD7BDD7BDD7BD4E
S2140114F8D7BDD7BDD7BDD7BDD7BDD7BDD7BDD7BD3E
S214011508D7BDD7BDD7BDD7BDD7BDD7BDD7BDD7BD2D
S214011518D7BDD7BDD7BDD7BDD7BDD7BDD7BDD7BD1D
S214011528D7BDD7BDD7BDD7BDD7BDD7BDD7BDD7BD0D
S214011538D7BDD7BDD7BDD7BDD7BDD7BDD7BDD7BDFD
S214011548D7BDD7BDD7BDD7BDD7BDD7BDD7BDD7BDED
S214011558D7BDD7BDD7BDD7BDD7BDD7BDD7BDD7BDDD
S214011568D7BDD7BDD7BDD7BDD7BDD7BDD7BDD7BDCD
S214011578D7BDD7BDD7BDD7BDD7BDD7BDD7BDD7BDBD
S214011588D7BDD7BDD7BDD7BDD7BDD7BDD7BDD7BDAD
S214011598D7BDD7BDD7BDD7BDD7BDD7BDD7BDD7BD9D
S2140115A8D7BDD7BDD7BDD7BDD7BDD7BDD7BDD7BD8D
S2140115B8D7BDD7BDD7BDD7BDD7BDD7BDD7BDD7BD7D
S2140115C8D7BDD7BDD7BDD7BDD7BDD7BDD7BDD7BD6D
S2140115D8D7BDD7BDD7BDD7BDD7BDD7BDD7BDD7BD5D
S2140115E8D7BDD7BDD7BDD7BDD7BDD7BDD7BDD7BD4D
S2140115F8D7BDD7BDD7BDD7BDD7BDD7BDD7BDD7BD3D
S214011608D7BDD7BDD7BDD7BDD7BDD7BDD7BDD7BD2C
S214011618D7BDD7BDD7BDD7BDD7BDD7BDD7BDD7BD1C
S214011628D7BDD7BDD7BDD7BDD7BDD7BDD7BDD7BD0C
S214011638D7BDD7BDD7BDF7BDAE7302E002E002E065
S214011648000000000000000000000000000000008C
S214011658000000000000000000000000000000007C
S214011668000000000000000000000000000000006C
S214011678000000000000000000000000000000005C
S2140199C800000000000000000000BAD6FFFFFFFFFD
S2140199D8FFFFFFFFFFFFFFFF000000000000000081
S2140199E80000000000000000000000000000000069
S2140199F80000000000000000000000000000000059
S214019A080000000000000000000000000000000048
S214019A180000000000000000000000000000000038
S214019C480000000000000000000000002421FBDEE8
S214019C58FFFF5DEF000000000000000000000000AC
S214019C6800000000000000000000000000000000E6
S214019C7800000000000000000000000000000000D6
S214019C8800000000000000000000000000000000C6
S214019C9800000000000000000000000000000000B6
S214019EC80000000000000000000000000000F7BDD0
S214019ED8FFFFBAD6000000000000000000000000E6
S214019EE80000000000000000000000000000000064
S214019EF80000000000000000000000000000000054
S214019F080000000000000000000000000000000043
S214019F180000000000000000000000000000000033
S21401A148000000000000000000000000000014A548
S21401A158FFFFBAD600000000000000000000000063
S21401A16800000000000000000000000000000000E1
S21401A17800000000000000000000000000000000D1
S21401A18800000000000000000000000000000000C1
S21401A19800000000000000000000000000000000B1
S21401A3C8000000000000000000000000000014A5C6
S21401A3D8FFFFBAD6000000000000000000000000E1
S21401A3E8000000000000000000000000000000005F
S21401A3F8000000000000000000000000000000004F
S21401A408000000000000000000000000000000003E
S21401A418000000000000000000000000000000002E
S21401A648000000000000000000000000000014A543
S21401A658FFFFBAD60000000000000000000000005E
S21401A66800000000000000000000000000000000DC
S21401A67800000000000000000000000000000000CC
S21401A68800000000000000000000000000000000BC
S21401A69800000000000000000000000000000000AC
S21401A6A8000000000000000000000000000000009C
S21401A6B8000000000000000000000000000000008C
S21401A6C8000000000000000000000000000000007C
S21401A6D8000000000000000000000000000000006C
S21401A6E8000000000000000000000000000000005C
S21401A6F8000000000000000000000000000000004C
S21401A708000000000000000000000000000000003B
S21401A718000000000000000000000000000000002B
S21401A728000000000000000000000000000000001B
S21401A738000000000000000000000000000000000B
S21401A74800000000000000000000000000000000FB
S21401A75800000000000000000000000000000000EB
S21401A76800000000000000000000000000000000DB
S21401A77800000000000000000000000000000000CB
